{"contracts/EWordEngContract.sol":{"EWordEngContract":{"abi":[{"anonymous":false,"inputs":[{"indexed":false,"internalType":"address","name":"recipient","type":"address"},{"indexed":false,"internalType":"uint256","name":"wordId","type":"uint256"}],"name":"AddWord","type":"event"},{"inputs":[{"internalType":"string","name":"engword","type":"string"},{"internalType":"string","name":"engword_explained","type":"string"},{"internalType":"string","name":"engword_pronounciation","type":"string"}],"name":"addEWord","outputs":[],"stateMutability":"nonpayable","type":"function"},{"inputs":[],"name":"getEWords","outputs":[{"components":[{"internalType":"uint256","name":"id","type":"uint256"},{"internalType":"string","name":"engword","type":"string"},{"internalType":"string","name":"engword_explained","type":"string"},{"internalType":"string","name":"engword_pronounciation","type":"string"}],"internalType":"struct EWordEngContract.EWord[]","name":"","type":"tuple[]"}],"stateMutability":"view","type":"function"},{"inputs":[{"internalType":"uint256","name":"wordid","type":"uint256"}],"name":"getEngWordEngExplainedAndPronounciation","outputs":[{"internalType":"string","name":"","type":"string"},{"internalType":"string","name":"","type":"string"},{"internalType":"string","name":"","type":"string"}],"stateMutability":"view","type":"function"}],"evm":{"bytecode":{"linkReferences":{},"object":"608060405234801561001057600080fd5b50611098806100206000396000f3fe608060405234801561001057600080fd5b50600436106100415760003560e01c806325ab71141461004657806349d926b91461007857806376f1895814610094575b600080fd5b610060600480360381019061005b91906107d2565b6100b2565b60405161006f9392919061088f565b60405180910390f35b610092600480360381019061008d9190610a10565b6102d7565b005b61009c61040b565b6040516100a99190610c43565b60405180910390f35b6060806060600084815481106100cb576100ca610c65565b5b9060005260206000209060040201600101600085815481106100f0576100ef610c65565b5b90600052602060002090600402016002016000868154811061011557610114610c65565b5b906000526020600020906004020160030182805461013290610cc3565b80601f016020809104026020016040519081016040528092919081815260200182805461015e90610cc3565b80156101ab5780601f10610180576101008083540402835291602001916101ab565b820191906000526020600020905b81548152906001019060200180831161018e57829003601f168201915b505050505092508180546101be90610cc3565b80601f01602080910402602001604051908101604052809291908181526020018280546101ea90610cc3565b80156102375780601f1061020c57610100808354040283529160200191610237565b820191906000526020600020905b81548152906001019060200180831161021a57829003601f168201915b5050505050915080805461024a90610cc3565b80601f016020809104026020016040519081016040528092919081815260200182805461027690610cc3565b80156102c35780601f10610298576101008083540402835291602001916102c3565b820191906000526020600020905b8154815290600101906020018083116102a657829003601f168201915b505050505090509250925092509193909250565b6000808054905090506000604051806080016040528083815260200186815260200185815260200184815250908060018154018082558091505060019003906000526020600020906004020160009091909190915060008201518160000155602082015181600101908161034b9190610ea0565b5060408201518160020190816103619190610ea0565b5060608201518160030190816103779190610ea0565b505050336001600083815260200190815260200160002060006101000a81548173ffffffffffffffffffffffffffffffffffffffff021916908373ffffffffffffffffffffffffffffffffffffffff1602179055507f671522cfa2688f05436872ff42ab995ee9330783a1d8023ffafe4d9b366050e833826040516103fd929190610fc2565b60405180910390a150505050565b60606000808054905067ffffffffffffffff81111561042d5761042c6108e5565b5b60405190808252806020026020018201604052801561046657816020015b610453610760565b81526020019060019003908161044b5790505b5090506000805b6000805490508110156106a6576000818154811061048e5761048d610c65565b5b9060005260206000209060040201604051806080016040529081600082015481526020016001820180546104c190610cc3565b80601f01602080910402602001604051908101604052809291908181526020018280546104ed90610cc3565b801561053a5780601f1061050f5761010080835404028352916020019161053a565b820191906000526020600020905b81548152906001019060200180831161051d57829003601f168201915b5050505050815260200160028201805461055390610cc3565b80601f016020809104026020016040519081016040528092919081815260200182805461057f90610cc3565b80156105cc5780601f106105a1576101008083540402835291602001916105cc565b820191906000526020600020905b8154815290600101906020018083116105af57829003601f168201915b505050505081526020016003820180546105e590610cc3565b80601f016020809104026020016040519081016040528092919081815260200182805461061190610cc3565b801561065e5780601f106106335761010080835404028352916020019161065e565b820191906000526020600020905b81548152906001019060200180831161064157829003601f168201915b50505050508152505083838151811061067a57610679610c65565b5b602002602001018190525081806106909061101a565b925050808061069e9061101a565b91505061046d565b5060008167ffffffffffffffff8111156106c3576106c26108e5565b5b6040519080825280602002602001820160405280156106fc57816020015b6106e9610760565b8152602001906001900390816106e15790505b50905060005b828110156107565783818151811061071d5761071c610c65565b5b602002602001015182828151811061073857610737610c65565b5b6020026020010181905250808061074e9061101a565b915050610702565b5080935050505090565b6040518060800160405280600081526020016060815260200160608152602001606081525090565b6000604051905090565b600080fd5b600080fd5b6000819050919050565b6107af8161079c565b81146107ba57600080fd5b50565b6000813590506107cc816107a6565b92915050565b6000602082840312156107e8576107e7610792565b5b60006107f6848285016107bd565b91505092915050565b600081519050919050565b600082825260208201905092915050565b60005b8381101561083957808201518184015260208101905061081e565b60008484015250505050565b6000601f19601f8301169050919050565b6000610861826107ff565b61086b818561080a565b935061087b81856020860161081b565b61088481610845565b840191505092915050565b600060608201905081810360008301526108a98186610856565b905081810360208301526108bd8185610856565b905081810360408301526108d18184610856565b9050949350505050565b600080fd5b600080fd5b7f4e487b7100000000000000000000000000000000000000000000000000000000600052604160045260246000fd5b61091d82610845565b810181811067ffffffffffffffff8211171561093c5761093b6108e5565b5b80604052505050565b600061094f610788565b905061095b8282610914565b919050565b600067ffffffffffffffff82111561097b5761097a6108e5565b5b61098482610845565b9050602081019050919050565b82818337600083830152505050565b60006109b36109ae84610960565b610945565b9050828152602081018484840111156109cf576109ce6108e0565b5b6109da848285610991565b509392505050565b600082601f8301126109f7576109f66108db565b5b8135610a078482602086016109a0565b91505092915050565b600080600060608486031215610a2957610a28610792565b5b600084013567ffffffffffffffff811115610a4757610a46610797565b5b610a53868287016109e2565b935050602084013567ffffffffffffffff811115610a7457610a73610797565b5b610a80868287016109e2565b925050604084013567ffffffffffffffff811115610aa157610aa0610797565b5b610aad868287016109e2565b9150509250925092565b600081519050919050565b600082825260208201905092915050565b6000819050602082019050919050565b610aec8161079c565b82525050565b600082825260208201905092915050565b6000610b0e826107ff565b610b188185610af2565b9350610b2881856020860161081b565b610b3181610845565b840191505092915050565b6000608083016000830151610b546000860182610ae3565b5060208301518482036020860152610b6c8282610b03565b91505060408301518482036040860152610b868282610b03565b91505060608301518482036060860152610ba08282610b03565b9150508091505092915050565b6000610bb98383610b3c565b905092915050565b6000602082019050919050565b6000610bd982610ab7565b610be38185610ac2565b935083602082028501610bf585610ad3565b8060005b85811015610c315784840389528151610c128582610bad565b9450610c1d83610bc1565b925060208a01995050600181019050610bf9565b50829750879550505050505092915050565b60006020820190508181036000830152610c5d8184610bce565b905092915050565b7f4e487b7100000000000000000000000000000000000000000000000000000000600052603260045260246000fd5b7f4e487b7100000000000000000000000000000000000000000000000000000000600052602260045260246000fd5b60006002820490506001821680610cdb57607f821691505b602082108103610cee57610ced610c94565b5b50919050565b60008190508160005260206000209050919050565b60006020601f8301049050919050565b600082821b905092915050565b600060088302610d567fffffffffffffffffffffffffffffffffffffffffffffffffffffffffffffffff82610d19565b610d608683610d19565b95508019841693508086168417925050509392505050565b6000819050919050565b6000610d9d610d98610d938461079c565b610d78565b61079c565b9050919050565b6000819050919050565b610db783610d82565b610dcb610dc382610da4565b848454610d26565b825550505050565b600090565b610de0610dd3565b610deb818484610dae565b505050565b5b81811015610e0f57610e04600082610dd8565b600181019050610df1565b5050565b601f821115610e5457610e2581610cf4565b610e2e84610d09565b81016020851015610e3d578190505b610e51610e4985610d09565b830182610df0565b50505b505050565b600082821c905092915050565b6000610e7760001984600802610e59565b1980831691505092915050565b6000610e908383610e66565b9150826002028217905092915050565b610ea9826107ff565b67ffffffffffffffff811115610ec257610ec16108e5565b5b610ecc8254610cc3565b610ed7828285610e13565b600060209050601f831160018114610f0a5760008415610ef8578287015190505b610f028582610e84565b865550610f6a565b601f198416610f1886610cf4565b60005b82811015610f4057848901518255600182019150602085019450602081019050610f1b565b86831015610f5d5784890151610f59601f891682610e66565b8355505b6001600288020188555050505b505050505050565b600073ffffffffffffffffffffffffffffffffffffffff82169050919050565b6000610f9d82610f72565b9050919050565b610fad81610f92565b82525050565b610fbc8161079c565b82525050565b6000604082019050610fd76000830185610fa4565b610fe46020830184610fb3565b9392505050565b7f4e487b7100000000000000000000000000000000000000000000000000000000600052601160045260246000fd5b60006110258261079c565b91507fffffffffffffffffffffffffffffffffffffffffffffffffffffffffffffffff820361105757611056610feb565b5b60018201905091905056fea2646970667358221220e95b91fb9a2a6f0becedb63655ccf9e1448342b7f93b8ec16d9b1dfc3e41b47464736f6c63430008110033","opcodes":"PUSH1 0x80 PUSH1 0x40 MSTORE CALLVALUE DUP1 ISZERO PUSH2 0x10 JUMPI PUSH1 0x0 DUP1 REVERT JUMPDEST POP PUSH2 0x1098 DUP1 PUSH2 0x20 PUSH1 0x0 CODECOPY PUSH1 0x0 RETURN INVALID PUSH1 0x80 PUSH1 0x40 MSTORE CALLVALUE DUP1 ISZERO PUSH2 0x10 JUMPI PUSH1 0x0 DUP1 REVERT JUMPDEST POP PUSH1 0x4 CALLDATASIZE LT PUSH2 0x41 JUMPI PUSH1 0x0 CALLDATALOAD PUSH1 0xE0 SHR DUP1 PUSH4 0x25AB7114 EQ PUSH2 0x46 JUMPI DUP1 PUSH4 0x49D926B9 EQ PUSH2 0x78 JUMPI DUP1 PUSH4 0x76F18958 EQ PUSH2 0x94 JUMPI JUMPDEST PUSH1 0x0 DUP1 REVERT JUMPDEST PUSH2 0x60 PUSH1 0x4 DUP1 CALLDATASIZE SUB DUP2 ADD SWAP1 PUSH2 0x5B SWAP2 SWAP1 PUSH2 0x7D2 JUMP JUMPDEST PUSH2 0xB2 JUMP JUMPDEST PUSH1 0x40 MLOAD PUSH2 0x6F SWAP4 SWAP3 SWAP2 SWAP1 PUSH2 0x88F JUMP JUMPDEST PUSH1 0x40 MLOAD DUP1 SWAP2 SUB SWAP1 RETURN JUMPDEST PUSH2 0x92 PUSH1 0x4 DUP1 CALLDATASIZE SUB DUP2 ADD SWAP1 PUSH2 0x8D SWAP2 SWAP1 PUSH2 0xA10 JUMP JUMPDEST PUSH2 0x2D7 JUMP JUMPDEST STOP JUMPDEST PUSH2 0x9C PUSH2 0x40B JUMP JUMPDEST PUSH1 0x40 MLOAD PUSH2 0xA9 SWAP2 SWAP1 PUSH2 0xC43 JUMP JUMPDEST PUSH1 0x40 MLOAD DUP1 SWAP2 SUB SWAP1 RETURN JUMPDEST PUSH1 0x60 DUP1 PUSH1 0x60 PUSH1 0x0 DUP5 DUP2 SLOAD DUP2 LT PUSH2 0xCB JUMPI PUSH2 0xCA PUSH2 0xC65 JUMP JUMPDEST JUMPDEST SWAP1 PUSH1 0x0 MSTORE PUSH1 0x20 PUSH1 0x0 KECCAK256 SWAP1 PUSH1 0x4 MUL ADD PUSH1 0x1 ADD PUSH1 0x0 DUP6 DUP2 SLOAD DUP2 LT PUSH2 0xF0 JUMPI PUSH2 0xEF PUSH2 0xC65 JUMP JUMPDEST JUMPDEST SWAP1 PUSH1 0x0 MSTORE PUSH1 0x20 PUSH1 0x0 KECCAK256 SWAP1 PUSH1 0x4 MUL ADD PUSH1 0x2 ADD PUSH1 0x0 DUP7 DUP2 SLOAD DUP2 LT PUSH2 0x115 JUMPI PUSH2 0x114 PUSH2 0xC65 JUMP JUMPDEST JUMPDEST SWAP1 PUSH1 0x0 MSTORE PUSH1 0x20 PUSH1 0x0 KECCAK256 SWAP1 PUSH1 0x4 MUL ADD PUSH1 0x3 ADD DUP3 DUP1 SLOAD PUSH2 0x132 SWAP1 PUSH2 0xCC3 JUMP JUMPDEST DUP1 PUSH1 0x1F ADD PUSH1 0x20 DUP1 SWAP2 DIV MUL PUSH1 0x20 ADD PUSH1 0x40 MLOAD SWAP1 DUP2 ADD PUSH1 0x40 MSTORE DUP1 SWAP3 SWAP2 SWAP1 DUP2 DUP2 MSTORE PUSH1 0x20 ADD DUP3 DUP1 SLOAD PUSH2 0x15E SWAP1 PUSH2 0xCC3 JUMP JUMPDEST DUP1 ISZERO PUSH2 0x1AB JUMPI DUP1 PUSH1 0x1F LT PUSH2 0x180 JUMPI PUSH2 0x100 DUP1 DUP4 SLOAD DIV MUL DUP4 MSTORE SWAP2 PUSH1 0x20 ADD SWAP2 PUSH2 0x1AB JUMP JUMPDEST DUP3 ADD SWAP2 SWAP1 PUSH1 0x0 MSTORE PUSH1 0x20 PUSH1 0x0 KECCAK256 SWAP1 JUMPDEST DUP2 SLOAD DUP2 MSTORE SWAP1 PUSH1 0x1 ADD SWAP1 PUSH1 0x20 ADD DUP1 DUP4 GT PUSH2 0x18E JUMPI DUP3 SWAP1 SUB PUSH1 0x1F AND DUP3 ADD SWAP2 JUMPDEST POP POP POP POP POP SWAP3 POP DUP2 DUP1 SLOAD PUSH2 0x1BE SWAP1 PUSH2 0xCC3 JUMP JUMPDEST DUP1 PUSH1 0x1F ADD PUSH1 0x20 DUP1 SWAP2 DIV MUL PUSH1 0x20 ADD PUSH1 0x40 MLOAD SWAP1 DUP2 ADD PUSH1 0x40 MSTORE DUP1 SWAP3 SWAP2 SWAP1 DUP2 DUP2 MSTORE PUSH1 0x20 ADD DUP3 DUP1 SLOAD PUSH2 0x1EA SWAP1 PUSH2 0xCC3 JUMP JUMPDEST DUP1 ISZERO PUSH2 0x237 JUMPI DUP1 PUSH1 0x1F LT PUSH2 0x20C JUMPI PUSH2 0x100 DUP1 DUP4 SLOAD DIV MUL DUP4 MSTORE SWAP2 PUSH1 0x20 ADD SWAP2 PUSH2 0x237 JUMP JUMPDEST DUP3 ADD SWAP2 SWAP1 PUSH1 0x0 MSTORE PUSH1 0x20 PUSH1 0x0 KECCAK256 SWAP1 JUMPDEST DUP2 SLOAD DUP2 MSTORE SWAP1 PUSH1 0x1 ADD SWAP1 PUSH1 0x20 ADD DUP1 DUP4 GT PUSH2 0x21A JUMPI DUP3 SWAP1 SUB PUSH1 0x1F AND DUP3 ADD SWAP2 JUMPDEST POP POP POP POP POP SWAP2 POP DUP1 DUP1 SLOAD PUSH2 0x24A SWAP1 PUSH2 0xCC3 JUMP JUMPDEST DUP1 PUSH1 0x1F ADD PUSH1 0x20 DUP1 SWAP2 DIV MUL PUSH1 0x20 ADD PUSH1 0x40 MLOAD SWAP1 DUP2 ADD PUSH1 0x40 MSTORE DUP1 SWAP3 SWAP2 SWAP1 DUP2 DUP2 MSTORE PUSH1 0x20 ADD DUP3 DUP1 SLOAD PUSH2 0x276 SWAP1 PUSH2 0xCC3 JUMP JUMPDEST DUP1 ISZERO PUSH2 0x2C3 JUMPI DUP1 PUSH1 0x1F LT PUSH2 0x298 JUMPI PUSH2 0x100 DUP1 DUP4 SLOAD DIV MUL DUP4 MSTORE SWAP2 PUSH1 0x20 ADD SWAP2 PUSH2 0x2C3 JUMP JUMPDEST DUP3 ADD SWAP2 SWAP1 PUSH1 0x0 MSTORE PUSH1 0x20 PUSH1 0x0 KECCAK256 SWAP1 JUMPDEST DUP2 SLOAD DUP2 MSTORE SWAP1 PUSH1 0x1 ADD SWAP1 PUSH1 0x20 ADD DUP1 DUP4 GT PUSH2 0x2A6 JUMPI DUP3 SWAP1 SUB PUSH1 0x1F AND DUP3 ADD SWAP2 JUMPDEST POP POP POP POP POP SWAP1 POP SWAP3 POP SWAP3 POP SWAP3 POP SWAP2 SWAP4 SWAP1 SWAP3 POP JUMP JUMPDEST PUSH1 0x0 DUP1 DUP1 SLOAD SWAP1 POP SWAP1 POP PUSH1 0x0 PUSH1 0x40 MLOAD DUP1 PUSH1 0x80 ADD PUSH1 0x40 MSTORE DUP1 DUP4 DUP2 MSTORE PUSH1 0x20 ADD DUP7 DUP2 MSTORE PUSH1 0x20 ADD DUP6 DUP2 MSTORE PUSH1 0x20 ADD DUP5 DUP2 MSTORE POP SWAP1 DUP1 PUSH1 0x1 DUP2 SLOAD ADD DUP1 DUP3 SSTORE DUP1 SWAP2 POP POP PUSH1 0x1 SWAP1 SUB SWAP1 PUSH1 0x0 MSTORE PUSH1 0x20 PUSH1 0x0 KECCAK256 SWAP1 PUSH1 0x4 MUL ADD PUSH1 0x0 SWAP1 SWAP2 SWAP1 SWAP2 SWAP1 SWAP2 POP PUSH1 0x0 DUP3 ADD MLOAD DUP2 PUSH1 0x0 ADD SSTORE PUSH1 0x20 DUP3 ADD MLOAD DUP2 PUSH1 0x1 ADD SWAP1 DUP2 PUSH2 0x34B SWAP2 SWAP1 PUSH2 0xEA0 JUMP JUMPDEST POP PUSH1 0x40 DUP3 ADD MLOAD DUP2 PUSH1 0x2 ADD SWAP1 DUP2 PUSH2 0x361 SWAP2 SWAP1 PUSH2 0xEA0 JUMP JUMPDEST POP PUSH1 0x60 DUP3 ADD MLOAD DUP2 PUSH1 0x3 ADD SWAP1 DUP2 PUSH2 0x377 SWAP2 SWAP1 PUSH2 0xEA0 JUMP JUMPDEST POP POP POP CALLER PUSH1 0x1 PUSH1 0x0 DUP4 DUP2 MSTORE PUSH1 0x20 ADD SWAP1 DUP2 MSTORE PUSH1 0x20 ADD PUSH1 0x0 KECCAK256 PUSH1 0x0 PUSH2 0x100 EXP DUP2 SLOAD DUP2 PUSH20 0xFFFFFFFFFFFFFFFFFFFFFFFFFFFFFFFFFFFFFFFF MUL NOT AND SWAP1 DUP4 PUSH20 0xFFFFFFFFFFFFFFFFFFFFFFFFFFFFFFFFFFFFFFFF AND MUL OR SWAP1 SSTORE POP PUSH32 0x671522CFA2688F05436872FF42AB995EE9330783A1D8023FFAFE4D9B366050E8 CALLER DUP3 PUSH1 0x40 MLOAD PUSH2 0x3FD SWAP3 SWAP2 SWAP1 PUSH2 0xFC2 JUMP JUMPDEST PUSH1 0x40 MLOAD DUP1 SWAP2 SUB SWAP1 LOG1 POP POP POP POP JUMP JUMPDEST PUSH1 0x60 PUSH1 0x0 DUP1 DUP1 SLOAD SWAP1 POP PUSH8 0xFFFFFFFFFFFFFFFF DUP2 GT ISZERO PUSH2 0x42D JUMPI PUSH2 0x42C PUSH2 0x8E5 JUMP JUMPDEST JUMPDEST PUSH1 0x40 MLOAD SWAP1 DUP1 DUP3 MSTORE DUP1 PUSH1 0x20 MUL PUSH1 0x20 ADD DUP3 ADD PUSH1 0x40 MSTORE DUP1 ISZERO PUSH2 0x466 JUMPI DUP2 PUSH1 0x20 ADD JUMPDEST PUSH2 0x453 PUSH2 0x760 JUMP JUMPDEST DUP2 MSTORE PUSH1 0x20 ADD SWAP1 PUSH1 0x1 SWAP1 SUB SWAP1 DUP2 PUSH2 0x44B JUMPI SWAP1 POP JUMPDEST POP SWAP1 POP PUSH1 0x0 DUP1 JUMPDEST PUSH1 0x0 DUP1 SLOAD SWAP1 POP DUP2 LT ISZERO PUSH2 0x6A6 JUMPI PUSH1 0x0 DUP2 DUP2 SLOAD DUP2 LT PUSH2 0x48E JUMPI PUSH2 0x48D PUSH2 0xC65 JUMP JUMPDEST JUMPDEST SWAP1 PUSH1 0x0 MSTORE PUSH1 0x20 PUSH1 0x0 KECCAK256 SWAP1 PUSH1 0x4 MUL ADD PUSH1 0x40 MLOAD DUP1 PUSH1 0x80 ADD PUSH1 0x40 MSTORE SWAP1 DUP2 PUSH1 0x0 DUP3 ADD SLOAD DUP2 MSTORE PUSH1 0x20 ADD PUSH1 0x1 DUP3 ADD DUP1 SLOAD PUSH2 0x4C1 SWAP1 PUSH2 0xCC3 JUMP JUMPDEST DUP1 PUSH1 0x1F ADD PUSH1 0x20 DUP1 SWAP2 DIV MUL PUSH1 0x20 ADD PUSH1 0x40 MLOAD SWAP1 DUP2 ADD PUSH1 0x40 MSTORE DUP1 SWAP3 SWAP2 SWAP1 DUP2 DUP2 MSTORE PUSH1 0x20 ADD DUP3 DUP1 SLOAD PUSH2 0x4ED SWAP1 PUSH2 0xCC3 JUMP JUMPDEST DUP1 ISZERO PUSH2 0x53A JUMPI DUP1 PUSH1 0x1F LT PUSH2 0x50F JUMPI PUSH2 0x100 DUP1 DUP4 SLOAD DIV MUL DUP4 MSTORE SWAP2 PUSH1 0x20 ADD SWAP2 PUSH2 0x53A JUMP JUMPDEST DUP3 ADD SWAP2 SWAP1 PUSH1 0x0 MSTORE PUSH1 0x20 PUSH1 0x0 KECCAK256 SWAP1 JUMPDEST DUP2 SLOAD DUP2 MSTORE SWAP1 PUSH1 0x1 ADD SWAP1 PUSH1 0x20 ADD DUP1 DUP4 GT PUSH2 0x51D JUMPI DUP3 SWAP1 SUB PUSH1 0x1F AND DUP3 ADD SWAP2 JUMPDEST POP POP POP POP POP DUP2 MSTORE PUSH1 0x20 ADD PUSH1 0x2 DUP3 ADD DUP1 SLOAD PUSH2 0x553 SWAP1 PUSH2 0xCC3 JUMP JUMPDEST DUP1 PUSH1 0x1F ADD PUSH1 0x20 DUP1 SWAP2 DIV MUL PUSH1 0x20 ADD PUSH1 0x40 MLOAD SWAP1 DUP2 ADD PUSH1 0x40 MSTORE DUP1 SWAP3 SWAP2 SWAP1 DUP2 DUP2 MSTORE PUSH1 0x20 ADD DUP3 DUP1 SLOAD PUSH2 0x57F SWAP1 PUSH2 0xCC3 JUMP JUMPDEST DUP1 ISZERO PUSH2 0x5CC JUMPI DUP1 PUSH1 0x1F LT PUSH2 0x5A1 JUMPI PUSH2 0x100 DUP1 DUP4 SLOAD DIV MUL DUP4 MSTORE SWAP2 PUSH1 0x20 ADD SWAP2 PUSH2 0x5CC JUMP JUMPDEST DUP3 ADD SWAP2 SWAP1 PUSH1 0x0 MSTORE PUSH1 0x20 PUSH1 0x0 KECCAK256 SWAP1 JUMPDEST DUP2 SLOAD DUP2 MSTORE SWAP1 PUSH1 0x1 ADD SWAP1 PUSH1 0x20 ADD DUP1 DUP4 GT PUSH2 0x5AF JUMPI DUP3 SWAP1 SUB PUSH1 0x1F AND DUP3 ADD SWAP2 JUMPDEST POP POP POP POP POP DUP2 MSTORE PUSH1 0x20 ADD PUSH1 0x3 DUP3 ADD DUP1 SLOAD PUSH2 0x5E5 SWAP1 PUSH2 0xCC3 JUMP JUMPDEST DUP1 PUSH1 0x1F ADD PUSH1 0x20 DUP1 SWAP2 DIV MUL PUSH1 0x20 ADD PUSH1 0x40 MLOAD SWAP1 DUP2 ADD PUSH1 0x40 MSTORE DUP1 SWAP3 SWAP2 SWAP1 DUP2 DUP2 MSTORE PUSH1 0x20 ADD DUP3 DUP1 SLOAD PUSH2 0x611 SWAP1 PUSH2 0xCC3 JUMP JUMPDEST DUP1 ISZERO PUSH2 0x65E JUMPI DUP1 PUSH1 0x1F LT PUSH2 0x633 JUMPI PUSH2 0x100 DUP1 DUP4 SLOAD DIV MUL DUP4 MSTORE SWAP2 PUSH1 0x20 ADD SWAP2 PUSH2 0x65E JUMP JUMPDEST DUP3 ADD SWAP2 SWAP1 PUSH1 0x0 MSTORE PUSH1 0x20 PUSH1 0x0 KECCAK256 SWAP1 JUMPDEST DUP2 SLOAD DUP2 MSTORE SWAP1 PUSH1 0x1 ADD SWAP1 PUSH1 0x20 ADD DUP1 DUP4 GT PUSH2 0x641 JUMPI DUP3 SWAP1 SUB PUSH1 0x1F AND DUP3 ADD SWAP2 JUMPDEST POP POP POP POP POP DUP2 MSTORE POP POP DUP4 DUP4 DUP2 MLOAD DUP2 LT PUSH2 0x67A JUMPI PUSH2 0x679 PUSH2 0xC65 JUMP JUMPDEST JUMPDEST PUSH1 0x20 MUL PUSH1 0x20 ADD ADD DUP2 SWAP1 MSTORE POP DUP2 DUP1 PUSH2 0x690 SWAP1 PUSH2 0x101A JUMP JUMPDEST SWAP3 POP POP DUP1 DUP1 PUSH2 0x69E SWAP1 PUSH2 0x101A JUMP JUMPDEST SWAP2 POP POP PUSH2 0x46D JUMP JUMPDEST POP PUSH1 0x0 DUP2 PUSH8 0xFFFFFFFFFFFFFFFF DUP2 GT ISZERO PUSH2 0x6C3 JUMPI PUSH2 0x6C2 PUSH2 0x8E5 JUMP JUMPDEST JUMPDEST PUSH1 0x40 MLOAD SWAP1 DUP1 DUP3 MSTORE DUP1 PUSH1 0x20 MUL PUSH1 0x20 ADD DUP3 ADD PUSH1 0x40 MSTORE DUP1 ISZERO PUSH2 0x6FC JUMPI DUP2 PUSH1 0x20 ADD JUMPDEST PUSH2 0x6E9 PUSH2 0x760 JUMP JUMPDEST DUP2 MSTORE PUSH1 0x20 ADD SWAP1 PUSH1 0x1 SWAP1 SUB SWAP1 DUP2 PUSH2 0x6E1 JUMPI SWAP1 POP JUMPDEST POP SWAP1 POP PUSH1 0x0 JUMPDEST DUP3 DUP2 LT ISZERO PUSH2 0x756 JUMPI DUP4 DUP2 DUP2 MLOAD DUP2 LT PUSH2 0x71D JUMPI PUSH2 0x71C PUSH2 0xC65 JUMP JUMPDEST JUMPDEST PUSH1 0x20 MUL PUSH1 0x20 ADD ADD MLOAD DUP3 DUP3 DUP2 MLOAD DUP2 LT PUSH2 0x738 JUMPI PUSH2 0x737 PUSH2 0xC65 JUMP JUMPDEST JUMPDEST PUSH1 0x20 MUL PUSH1 0x20 ADD ADD DUP2 SWAP1 MSTORE POP DUP1 DUP1 PUSH2 0x74E SWAP1 PUSH2 0x101A JUMP JUMPDEST SWAP2 POP POP PUSH2 0x702 JUMP JUMPDEST POP DUP1 SWAP4 POP POP POP POP SWAP1 JUMP JUMPDEST PUSH1 0x40 MLOAD DUP1 PUSH1 0x80 ADD PUSH1 0x40 MSTORE DUP1 PUSH1 0x0 DUP2 MSTORE PUSH1 0x20 ADD PUSH1 0x60 DUP2 MSTORE PUSH1 0x20 ADD PUSH1 0x60 DUP2 MSTORE PUSH1 0x20 ADD PUSH1 0x60 DUP2 MSTORE POP SWAP1 JUMP JUMPDEST PUSH1 0x0 PUSH1 0x40 MLOAD SWAP1 POP SWAP1 JUMP JUMPDEST PUSH1 0x0 DUP1 REVERT JUMPDEST PUSH1 0x0 DUP1 REVERT JUMPDEST PUSH1 0x0 DUP2 SWAP1 POP SWAP2 SWAP1 POP JUMP JUMPDEST PUSH2 0x7AF DUP2 PUSH2 0x79C JUMP JUMPDEST DUP2 EQ PUSH2 0x7BA JUMPI PUSH1 0x0 DUP1 REVERT JUMPDEST POP JUMP JUMPDEST PUSH1 0x0 DUP2 CALLDATALOAD SWAP1 POP PUSH2 0x7CC DUP2 PUSH2 0x7A6 JUMP JUMPDEST SWAP3 SWAP2 POP POP JUMP JUMPDEST PUSH1 0x0 PUSH1 0x20 DUP3 DUP5 SUB SLT ISZERO PUSH2 0x7E8 JUMPI PUSH2 0x7E7 PUSH2 0x792 JUMP JUMPDEST JUMPDEST PUSH1 0x0 PUSH2 0x7F6 DUP5 DUP3 DUP6 ADD PUSH2 0x7BD JUMP JUMPDEST SWAP2 POP POP SWAP3 SWAP2 POP POP JUMP JUMPDEST PUSH1 0x0 DUP2 MLOAD SWAP1 POP SWAP2 SWAP1 POP JUMP JUMPDEST PUSH1 0x0 DUP3 DUP3 MSTORE PUSH1 0x20 DUP3 ADD SWAP1 POP SWAP3 SWAP2 POP POP JUMP JUMPDEST PUSH1 0x0 JUMPDEST DUP4 DUP2 LT ISZERO PUSH2 0x839 JUMPI DUP1 DUP3 ADD MLOAD DUP2 DUP5 ADD MSTORE PUSH1 0x20 DUP2 ADD SWAP1 POP PUSH2 0x81E JUMP JUMPDEST PUSH1 0x0 DUP5 DUP5 ADD MSTORE POP POP POP POP JUMP JUMPDEST PUSH1 0x0 PUSH1 0x1F NOT PUSH1 0x1F DUP4 ADD AND SWAP1 POP SWAP2 SWAP1 POP JUMP JUMPDEST PUSH1 0x0 PUSH2 0x861 DUP3 PUSH2 0x7FF JUMP JUMPDEST PUSH2 0x86B DUP2 DUP6 PUSH2 0x80A JUMP JUMPDEST SWAP4 POP PUSH2 0x87B DUP2 DUP6 PUSH1 0x20 DUP7 ADD PUSH2 0x81B JUMP JUMPDEST PUSH2 0x884 DUP2 PUSH2 0x845 JUMP JUMPDEST DUP5 ADD SWAP2 POP POP SWAP3 SWAP2 POP POP JUMP JUMPDEST PUSH1 0x0 PUSH1 0x60 DUP3 ADD SWAP1 POP DUP2 DUP2 SUB PUSH1 0x0 DUP4 ADD MSTORE PUSH2 0x8A9 DUP2 DUP7 PUSH2 0x856 JUMP JUMPDEST SWAP1 POP DUP2 DUP2 SUB PUSH1 0x20 DUP4 ADD MSTORE PUSH2 0x8BD DUP2 DUP6 PUSH2 0x856 JUMP JUMPDEST SWAP1 POP DUP2 DUP2 SUB PUSH1 0x40 DUP4 ADD MSTORE PUSH2 0x8D1 DUP2 DUP5 PUSH2 0x856 JUMP JUMPDEST SWAP1 POP SWAP5 SWAP4 POP POP POP POP JUMP JUMPDEST PUSH1 0x0 DUP1 REVERT JUMPDEST PUSH1 0x0 DUP1 REVERT JUMPDEST PUSH32 0x4E487B7100000000000000000000000000000000000000000000000000000000 PUSH1 0x0 MSTORE PUSH1 0x41 PUSH1 0x4 MSTORE PUSH1 0x24 PUSH1 0x0 REVERT JUMPDEST PUSH2 0x91D DUP3 PUSH2 0x845 JUMP JUMPDEST DUP2 ADD DUP2 DUP2 LT PUSH8 0xFFFFFFFFFFFFFFFF DUP3 GT OR ISZERO PUSH2 0x93C JUMPI PUSH2 0x93B PUSH2 0x8E5 JUMP JUMPDEST JUMPDEST DUP1 PUSH1 0x40 MSTORE POP POP POP JUMP JUMPDEST PUSH1 0x0 PUSH2 0x94F PUSH2 0x788 JUMP JUMPDEST SWAP1 POP PUSH2 0x95B DUP3 DUP3 PUSH2 0x914 JUMP JUMPDEST SWAP2 SWAP1 POP JUMP JUMPDEST PUSH1 0x0 PUSH8 0xFFFFFFFFFFFFFFFF DUP3 GT ISZERO PUSH2 0x97B JUMPI PUSH2 0x97A PUSH2 0x8E5 JUMP JUMPDEST JUMPDEST PUSH2 0x984 DUP3 PUSH2 0x845 JUMP JUMPDEST SWAP1 POP PUSH1 0x20 DUP2 ADD SWAP1 POP SWAP2 SWAP1 POP JUMP JUMPDEST DUP3 DUP2 DUP4 CALLDATACOPY PUSH1 0x0 DUP4 DUP4 ADD MSTORE POP POP POP JUMP JUMPDEST PUSH1 0x0 PUSH2 0x9B3 PUSH2 0x9AE DUP5 PUSH2 0x960 JUMP JUMPDEST PUSH2 0x945 JUMP JUMPDEST SWAP1 POP DUP3 DUP2 MSTORE PUSH1 0x20 DUP2 ADD DUP5 DUP5 DUP5 ADD GT ISZERO PUSH2 0x9CF JUMPI PUSH2 0x9CE PUSH2 0x8E0 JUMP JUMPDEST JUMPDEST PUSH2 0x9DA DUP5 DUP3 DUP6 PUSH2 0x991 JUMP JUMPDEST POP SWAP4 SWAP3 POP POP POP JUMP JUMPDEST PUSH1 0x0 DUP3 PUSH1 0x1F DUP4 ADD SLT PUSH2 0x9F7 JUMPI PUSH2 0x9F6 PUSH2 0x8DB JUMP JUMPDEST JUMPDEST DUP2 CALLDATALOAD PUSH2 0xA07 DUP5 DUP3 PUSH1 0x20 DUP7 ADD PUSH2 0x9A0 JUMP JUMPDEST SWAP2 POP POP SWAP3 SWAP2 POP POP JUMP JUMPDEST PUSH1 0x0 DUP1 PUSH1 0x0 PUSH1 0x60 DUP5 DUP7 SUB SLT ISZERO PUSH2 0xA29 JUMPI PUSH2 0xA28 PUSH2 0x792 JUMP JUMPDEST JUMPDEST PUSH1 0x0 DUP5 ADD CALLDATALOAD PUSH8 0xFFFFFFFFFFFFFFFF DUP2 GT ISZERO PUSH2 0xA47 JUMPI PUSH2 0xA46 PUSH2 0x797 JUMP JUMPDEST JUMPDEST PUSH2 0xA53 DUP7 DUP3 DUP8 ADD PUSH2 0x9E2 JUMP JUMPDEST SWAP4 POP POP PUSH1 0x20 DUP5 ADD CALLDATALOAD PUSH8 0xFFFFFFFFFFFFFFFF DUP2 GT ISZERO PUSH2 0xA74 JUMPI PUSH2 0xA73 PUSH2 0x797 JUMP JUMPDEST JUMPDEST PUSH2 0xA80 DUP7 DUP3 DUP8 ADD PUSH2 0x9E2 JUMP JUMPDEST SWAP3 POP POP PUSH1 0x40 DUP5 ADD CALLDATALOAD PUSH8 0xFFFFFFFFFFFFFFFF DUP2 GT ISZERO PUSH2 0xAA1 JUMPI PUSH2 0xAA0 PUSH2 0x797 JUMP JUMPDEST JUMPDEST PUSH2 0xAAD DUP7 DUP3 DUP8 ADD PUSH2 0x9E2 JUMP JUMPDEST SWAP2 POP POP SWAP3 POP SWAP3 POP SWAP3 JUMP JUMPDEST PUSH1 0x0 DUP2 MLOAD SWAP1 POP SWAP2 SWAP1 POP JUMP JUMPDEST PUSH1 0x0 DUP3 DUP3 MSTORE PUSH1 0x20 DUP3 ADD SWAP1 POP SWAP3 SWAP2 POP POP JUMP JUMPDEST PUSH1 0x0 DUP2 SWAP1 POP PUSH1 0x20 DUP3 ADD SWAP1 POP SWAP2 SWAP1 POP JUMP JUMPDEST PUSH2 0xAEC DUP2 PUSH2 0x79C JUMP JUMPDEST DUP3 MSTORE POP POP JUMP JUMPDEST PUSH1 0x0 DUP3 DUP3 MSTORE PUSH1 0x20 DUP3 ADD SWAP1 POP SWAP3 SWAP2 POP POP JUMP JUMPDEST PUSH1 0x0 PUSH2 0xB0E DUP3 PUSH2 0x7FF JUMP JUMPDEST PUSH2 0xB18 DUP2 DUP6 PUSH2 0xAF2 JUMP JUMPDEST SWAP4 POP PUSH2 0xB28 DUP2 DUP6 PUSH1 0x20 DUP7 ADD PUSH2 0x81B JUMP JUMPDEST PUSH2 0xB31 DUP2 PUSH2 0x845 JUMP JUMPDEST DUP5 ADD SWAP2 POP POP SWAP3 SWAP2 POP POP JUMP JUMPDEST PUSH1 0x0 PUSH1 0x80 DUP4 ADD PUSH1 0x0 DUP4 ADD MLOAD PUSH2 0xB54 PUSH1 0x0 DUP7 ADD DUP3 PUSH2 0xAE3 JUMP JUMPDEST POP PUSH1 0x20 DUP4 ADD MLOAD DUP5 DUP3 SUB PUSH1 0x20 DUP7 ADD MSTORE PUSH2 0xB6C DUP3 DUP3 PUSH2 0xB03 JUMP JUMPDEST SWAP2 POP POP PUSH1 0x40 DUP4 ADD MLOAD DUP5 DUP3 SUB PUSH1 0x40 DUP7 ADD MSTORE PUSH2 0xB86 DUP3 DUP3 PUSH2 0xB03 JUMP JUMPDEST SWAP2 POP POP PUSH1 0x60 DUP4 ADD MLOAD DUP5 DUP3 SUB PUSH1 0x60 DUP7 ADD MSTORE PUSH2 0xBA0 DUP3 DUP3 PUSH2 0xB03 JUMP JUMPDEST SWAP2 POP POP DUP1 SWAP2 POP POP SWAP3 SWAP2 POP POP JUMP JUMPDEST PUSH1 0x0 PUSH2 0xBB9 DUP4 DUP4 PUSH2 0xB3C JUMP JUMPDEST SWAP1 POP SWAP3 SWAP2 POP POP JUMP JUMPDEST PUSH1 0x0 PUSH1 0x20 DUP3 ADD SWAP1 POP SWAP2 SWAP1 POP JUMP JUMPDEST PUSH1 0x0 PUSH2 0xBD9 DUP3 PUSH2 0xAB7 JUMP JUMPDEST PUSH2 0xBE3 DUP2 DUP6 PUSH2 0xAC2 JUMP JUMPDEST SWAP4 POP DUP4 PUSH1 0x20 DUP3 MUL DUP6 ADD PUSH2 0xBF5 DUP6 PUSH2 0xAD3 JUMP JUMPDEST DUP1 PUSH1 0x0 JUMPDEST DUP6 DUP2 LT ISZERO PUSH2 0xC31 JUMPI DUP5 DUP5 SUB DUP10 MSTORE DUP2 MLOAD PUSH2 0xC12 DUP6 DUP3 PUSH2 0xBAD JUMP JUMPDEST SWAP5 POP PUSH2 0xC1D DUP4 PUSH2 0xBC1 JUMP JUMPDEST SWAP3 POP PUSH1 0x20 DUP11 ADD SWAP10 POP POP PUSH1 0x1 DUP2 ADD SWAP1 POP PUSH2 0xBF9 JUMP JUMPDEST POP DUP3 SWAP8 POP DUP8 SWAP6 POP POP POP POP POP POP SWAP3 SWAP2 POP POP JUMP JUMPDEST PUSH1 0x0 PUSH1 0x20 DUP3 ADD SWAP1 POP DUP2 DUP2 SUB PUSH1 0x0 DUP4 ADD MSTORE PUSH2 0xC5D DUP2 DUP5 PUSH2 0xBCE JUMP JUMPDEST SWAP1 POP SWAP3 SWAP2 POP POP JUMP JUMPDEST PUSH32 0x4E487B7100000000000000000000000000000000000000000000000000000000 PUSH1 0x0 MSTORE PUSH1 0x32 PUSH1 0x4 MSTORE PUSH1 0x24 PUSH1 0x0 REVERT JUMPDEST PUSH32 0x4E487B7100000000000000000000000000000000000000000000000000000000 PUSH1 0x0 MSTORE PUSH1 0x22 PUSH1 0x4 MSTORE PUSH1 0x24 PUSH1 0x0 REVERT JUMPDEST PUSH1 0x0 PUSH1 0x2 DUP3 DIV SWAP1 POP PUSH1 0x1 DUP3 AND DUP1 PUSH2 0xCDB JUMPI PUSH1 0x7F DUP3 AND SWAP2 POP JUMPDEST PUSH1 0x20 DUP3 LT DUP2 SUB PUSH2 0xCEE JUMPI PUSH2 0xCED PUSH2 0xC94 JUMP JUMPDEST JUMPDEST POP SWAP2 SWAP1 POP JUMP JUMPDEST PUSH1 0x0 DUP2 SWAP1 POP DUP2 PUSH1 0x0 MSTORE PUSH1 0x20 PUSH1 0x0 KECCAK256 SWAP1 POP SWAP2 SWAP1 POP JUMP JUMPDEST PUSH1 0x0 PUSH1 0x20 PUSH1 0x1F DUP4 ADD DIV SWAP1 POP SWAP2 SWAP1 POP JUMP JUMPDEST PUSH1 0x0 DUP3 DUP3 SHL SWAP1 POP SWAP3 SWAP2 POP POP JUMP JUMPDEST PUSH1 0x0 PUSH1 0x8 DUP4 MUL PUSH2 0xD56 PUSH32 0xFFFFFFFFFFFFFFFFFFFFFFFFFFFFFFFFFFFFFFFFFFFFFFFFFFFFFFFFFFFFFFFF DUP3 PUSH2 0xD19 JUMP JUMPDEST PUSH2 0xD60 DUP7 DUP4 PUSH2 0xD19 JUMP JUMPDEST SWAP6 POP DUP1 NOT DUP5 AND SWAP4 POP DUP1 DUP7 AND DUP5 OR SWAP3 POP POP POP SWAP4 SWAP3 POP POP POP JUMP JUMPDEST PUSH1 0x0 DUP2 SWAP1 POP SWAP2 SWAP1 POP JUMP JUMPDEST PUSH1 0x0 PUSH2 0xD9D PUSH2 0xD98 PUSH2 0xD93 DUP5 PUSH2 0x79C JUMP JUMPDEST PUSH2 0xD78 JUMP JUMPDEST PUSH2 0x79C JUMP JUMPDEST SWAP1 POP SWAP2 SWAP1 POP JUMP JUMPDEST PUSH1 0x0 DUP2 SWAP1 POP SWAP2 SWAP1 POP JUMP JUMPDEST PUSH2 0xDB7 DUP4 PUSH2 0xD82 JUMP JUMPDEST PUSH2 0xDCB PUSH2 0xDC3 DUP3 PUSH2 0xDA4 JUMP JUMPDEST DUP5 DUP5 SLOAD PUSH2 0xD26 JUMP JUMPDEST DUP3 SSTORE POP POP POP POP JUMP JUMPDEST PUSH1 0x0 SWAP1 JUMP JUMPDEST PUSH2 0xDE0 PUSH2 0xDD3 JUMP JUMPDEST PUSH2 0xDEB DUP2 DUP5 DUP5 PUSH2 0xDAE JUMP JUMPDEST POP POP POP JUMP JUMPDEST JUMPDEST DUP2 DUP2 LT ISZERO PUSH2 0xE0F JUMPI PUSH2 0xE04 PUSH1 0x0 DUP3 PUSH2 0xDD8 JUMP JUMPDEST PUSH1 0x1 DUP2 ADD SWAP1 POP PUSH2 0xDF1 JUMP JUMPDEST POP POP JUMP JUMPDEST PUSH1 0x1F DUP3 GT ISZERO PUSH2 0xE54 JUMPI PUSH2 0xE25 DUP2 PUSH2 0xCF4 JUMP JUMPDEST PUSH2 0xE2E DUP5 PUSH2 0xD09 JUMP JUMPDEST DUP2 ADD PUSH1 0x20 DUP6 LT ISZERO PUSH2 0xE3D JUMPI DUP2 SWAP1 POP JUMPDEST PUSH2 0xE51 PUSH2 0xE49 DUP6 PUSH2 0xD09 JUMP JUMPDEST DUP4 ADD DUP3 PUSH2 0xDF0 JUMP JUMPDEST POP POP JUMPDEST POP POP POP JUMP JUMPDEST PUSH1 0x0 DUP3 DUP3 SHR SWAP1 POP SWAP3 SWAP2 POP POP JUMP JUMPDEST PUSH1 0x0 PUSH2 0xE77 PUSH1 0x0 NOT DUP5 PUSH1 0x8 MUL PUSH2 0xE59 JUMP JUMPDEST NOT DUP1 DUP4 AND SWAP2 POP POP SWAP3 SWAP2 POP POP JUMP JUMPDEST PUSH1 0x0 PUSH2 0xE90 DUP4 DUP4 PUSH2 0xE66 JUMP JUMPDEST SWAP2 POP DUP3 PUSH1 0x2 MUL DUP3 OR SWAP1 POP SWAP3 SWAP2 POP POP JUMP JUMPDEST PUSH2 0xEA9 DUP3 PUSH2 0x7FF JUMP JUMPDEST PUSH8 0xFFFFFFFFFFFFFFFF DUP2 GT ISZERO PUSH2 0xEC2 JUMPI PUSH2 0xEC1 PUSH2 0x8E5 JUMP JUMPDEST JUMPDEST PUSH2 0xECC DUP3 SLOAD PUSH2 0xCC3 JUMP JUMPDEST PUSH2 0xED7 DUP3 DUP3 DUP6 PUSH2 0xE13 JUMP JUMPDEST PUSH1 0x0 PUSH1 0x20 SWAP1 POP PUSH1 0x1F DUP4 GT PUSH1 0x1 DUP2 EQ PUSH2 0xF0A JUMPI PUSH1 0x0 DUP5 ISZERO PUSH2 0xEF8 JUMPI DUP3 DUP8 ADD MLOAD SWAP1 POP JUMPDEST PUSH2 0xF02 DUP6 DUP3 PUSH2 0xE84 JUMP JUMPDEST DUP7 SSTORE POP PUSH2 0xF6A JUMP JUMPDEST PUSH1 0x1F NOT DUP5 AND PUSH2 0xF18 DUP7 PUSH2 0xCF4 JUMP JUMPDEST PUSH1 0x0 JUMPDEST DUP3 DUP2 LT ISZERO PUSH2 0xF40 JUMPI DUP5 DUP10 ADD MLOAD DUP3 SSTORE PUSH1 0x1 DUP3 ADD SWAP2 POP PUSH1 0x20 DUP6 ADD SWAP5 POP PUSH1 0x20 DUP2 ADD SWAP1 POP PUSH2 0xF1B JUMP JUMPDEST DUP7 DUP4 LT ISZERO PUSH2 0xF5D JUMPI DUP5 DUP10 ADD MLOAD PUSH2 0xF59 PUSH1 0x1F DUP10 AND DUP3 PUSH2 0xE66 JUMP JUMPDEST DUP4 SSTORE POP JUMPDEST PUSH1 0x1 PUSH1 0x2 DUP9 MUL ADD DUP9 SSTORE POP POP POP JUMPDEST POP POP POP POP POP POP JUMP JUMPDEST PUSH1 0x0 PUSH20 0xFFFFFFFFFFFFFFFFFFFFFFFFFFFFFFFFFFFFFFFF DUP3 AND SWAP1 POP SWAP2 SWAP1 POP JUMP JUMPDEST PUSH1 0x0 PUSH2 0xF9D DUP3 PUSH2 0xF72 JUMP JUMPDEST SWAP1 POP SWAP2 SWAP1 POP JUMP JUMPDEST PUSH2 0xFAD DUP2 PUSH2 0xF92 JUMP JUMPDEST DUP3 MSTORE POP POP JUMP JUMPDEST PUSH2 0xFBC DUP2 PUSH2 0x79C JUMP JUMPDEST DUP3 MSTORE POP POP JUMP JUMPDEST PUSH1 0x0 PUSH1 0x40 DUP3 ADD SWAP1 POP PUSH2 0xFD7 PUSH1 0x0 DUP4 ADD DUP6 PUSH2 0xFA4 JUMP JUMPDEST PUSH2 0xFE4 PUSH1 0x20 DUP4 ADD DUP5 PUSH2 0xFB3 JUMP JUMPDEST SWAP4 SWAP3 POP POP POP JUMP JUMPDEST PUSH32 0x4E487B7100000000000000000000000000000000000000000000000000000000 PUSH1 0x0 MSTORE PUSH1 0x11 PUSH1 0x4 MSTORE PUSH1 0x24 PUSH1 0x0 REVERT JUMPDEST PUSH1 0x0 PUSH2 0x1025 DUP3 PUSH2 0x79C JUMP JUMPDEST SWAP2 POP PUSH32 0xFFFFFFFFFFFFFFFFFFFFFFFFFFFFFFFFFFFFFFFFFFFFFFFFFFFFFFFFFFFFFFFF DUP3 SUB PUSH2 0x1057 JUMPI PUSH2 0x1056 PUSH2 0xFEB JUMP JUMPDEST JUMPDEST PUSH1 0x1 DUP3 ADD SWAP1 POP SWAP2 SWAP1 POP JUMP INVALID LOG2 PUSH5 0x6970667358 0x22 SLT KECCAK256 0xE9 JUMPDEST SWAP2 0xFB SWAP11 0x2A PUSH16 0xBECEDB63655CCF9E1448342B7F93B8E 0xC1 PUSH14 0x9B1DFC3E41B47464736F6C634300 ADDMOD GT STOP CALLER "},"methodIdentifiers":{"addEWord(string,string,string)":"49d926b9","getEWords()":"76f18958","getEngWordEngExplainedAndPronounciation(uint256)":"25ab7114"}}}}}