{
  "_format": "hh-sol-artifact-1",
  "contractName": "EWordEngContract",
  "sourceName": "contracts/EWordEngContract.sol",
  "abi": [
    {
      "inputs": [],
      "stateMutability": "nonpayable",
      "type": "constructor"
    },
    {
      "anonymous": false,
      "inputs": [
        {
          "indexed": false,
          "internalType": "address",
          "name": "recipient",
          "type": "address"
        },
        {
          "indexed": false,
          "internalType": "uint256",
          "name": "wordId",
          "type": "uint256"
        }
      ],
      "name": "AddWord",
      "type": "event"
    },
    {
      "anonymous": false,
      "inputs": [
        {
          "indexed": true,
          "internalType": "address",
          "name": "owner",
          "type": "address"
        },
        {
          "indexed": true,
          "internalType": "address",
          "name": "spender",
          "type": "address"
        },
        {
          "indexed": false,
          "internalType": "uint256",
          "name": "value",
          "type": "uint256"
        }
      ],
      "name": "Approval",
      "type": "event"
    },
    {
      "anonymous": false,
      "inputs": [
        {
          "indexed": true,
          "internalType": "address",
          "name": "from",
          "type": "address"
        },
        {
          "indexed": true,
          "internalType": "address",
          "name": "to",
          "type": "address"
        },
        {
          "indexed": false,
          "internalType": "uint256",
          "name": "value",
          "type": "uint256"
        }
      ],
      "name": "Transfer",
      "type": "event"
    },
    {
      "inputs": [
        {
          "internalType": "string",
          "name": "engword",
          "type": "string"
        },
        {
          "internalType": "string",
          "name": "engword_explained",
          "type": "string"
        },
        {
          "internalType": "string",
          "name": "engword_pronounciation",
          "type": "string"
        }
      ],
      "name": "addEWord",
      "outputs": [],
      "stateMutability": "nonpayable",
      "type": "function"
    },
    {
      "inputs": [
        {
          "internalType": "address",
          "name": "owner",
          "type": "address"
        },
        {
          "internalType": "address",
          "name": "spender",
          "type": "address"
        }
      ],
      "name": "allowance",
      "outputs": [
        {
          "internalType": "uint256",
          "name": "",
          "type": "uint256"
        }
      ],
      "stateMutability": "view",
      "type": "function"
    },
    {
      "inputs": [
        {
          "internalType": "address",
          "name": "spender",
          "type": "address"
        },
        {
          "internalType": "uint256",
          "name": "amount",
          "type": "uint256"
        }
      ],
      "name": "approve",
      "outputs": [
        {
          "internalType": "bool",
          "name": "",
          "type": "bool"
        }
      ],
      "stateMutability": "nonpayable",
      "type": "function"
    },
    {
      "inputs": [
        {
          "internalType": "address",
          "name": "account",
          "type": "address"
        }
      ],
      "name": "balanceOf",
      "outputs": [
        {
          "internalType": "uint256",
          "name": "",
          "type": "uint256"
        }
      ],
      "stateMutability": "view",
      "type": "function"
    },
    {
      "inputs": [],
      "name": "decimals",
      "outputs": [
        {
          "internalType": "uint8",
          "name": "",
          "type": "uint8"
        }
      ],
      "stateMutability": "view",
      "type": "function"
    },
    {
      "inputs": [
        {
          "internalType": "address",
          "name": "spender",
          "type": "address"
        },
        {
          "internalType": "uint256",
          "name": "subtractedValue",
          "type": "uint256"
        }
      ],
      "name": "decreaseAllowance",
      "outputs": [
        {
          "internalType": "bool",
          "name": "",
          "type": "bool"
        }
      ],
      "stateMutability": "nonpayable",
      "type": "function"
    },
    {
      "inputs": [
        {
          "internalType": "uint256",
          "name": "wordid",
          "type": "uint256"
        }
      ],
      "name": "getAddedEngWordEngExplainedAndPronounciation",
      "outputs": [
        {
          "internalType": "string",
          "name": "",
          "type": "string"
        },
        {
          "internalType": "string",
          "name": "",
          "type": "string"
        },
        {
          "internalType": "string",
          "name": "",
          "type": "string"
        }
      ],
      "stateMutability": "view",
      "type": "function"
    },
    {
      "inputs": [],
      "name": "getEWords",
      "outputs": [
        {
          "components": [
            {
              "internalType": "uint256",
              "name": "id",
              "type": "uint256"
            },
            {
              "internalType": "string",
              "name": "engword",
              "type": "string"
            },
            {
              "internalType": "string",
              "name": "engword_explained",
              "type": "string"
            },
            {
              "internalType": "string",
              "name": "engword_pronounciation",
              "type": "string"
            }
          ],
          "internalType": "struct EWordEngContract.EWord[]",
          "name": "",
          "type": "tuple[]"
        }
      ],
      "stateMutability": "view",
      "type": "function"
    },
    {
      "inputs": [
        {
          "internalType": "uint256",
          "name": "wordid",
          "type": "uint256"
        }
      ],
      "name": "getEngWordEngExplainedAndPronounciation",
      "outputs": [
        {
          "internalType": "string",
          "name": "",
          "type": "string"
        },
        {
          "internalType": "string",
          "name": "",
          "type": "string"
        },
        {
          "internalType": "string",
          "name": "",
          "type": "string"
        }
      ],
      "stateMutability": "view",
      "type": "function"
    },
    {
      "inputs": [
        {
          "internalType": "address",
          "name": "spender",
          "type": "address"
        },
        {
          "internalType": "uint256",
          "name": "addedValue",
          "type": "uint256"
        }
      ],
      "name": "increaseAllowance",
      "outputs": [
        {
          "internalType": "bool",
          "name": "",
          "type": "bool"
        }
      ],
      "stateMutability": "nonpayable",
      "type": "function"
    },
    {
      "inputs": [],
      "name": "name",
      "outputs": [
        {
          "internalType": "string",
          "name": "",
          "type": "string"
        }
      ],
      "stateMutability": "view",
      "type": "function"
    },
    {
      "inputs": [],
      "name": "symbol",
      "outputs": [
        {
          "internalType": "string",
          "name": "",
          "type": "string"
        }
      ],
      "stateMutability": "view",
      "type": "function"
    },
    {
      "inputs": [],
      "name": "totalSupply",
      "outputs": [
        {
          "internalType": "uint256",
          "name": "",
          "type": "uint256"
        }
      ],
      "stateMutability": "view",
      "type": "function"
    },
    {
      "inputs": [
        {
          "internalType": "address",
          "name": "to",
          "type": "address"
        },
        {
          "internalType": "uint256",
          "name": "amount",
          "type": "uint256"
        }
      ],
      "name": "transfer",
      "outputs": [
        {
          "internalType": "bool",
          "name": "",
          "type": "bool"
        }
      ],
      "stateMutability": "nonpayable",
      "type": "function"
    },
    {
      "inputs": [
        {
          "internalType": "address",
          "name": "from",
          "type": "address"
        },
        {
          "internalType": "address",
          "name": "to",
          "type": "address"
        },
        {
          "internalType": "uint256",
          "name": "amount",
          "type": "uint256"
        }
      ],
      "name": "transferFrom",
      "outputs": [
        {
          "internalType": "bool",
          "name": "",
          "type": "bool"
        }
      ],
      "stateMutability": "nonpayable",
      "type": "function"
    }
  ],
  "bytecode": "0x60806040523480156200001157600080fd5b50604051806020016040528060008152506040518060200160405280600081525081600390816200004391906200054d565b5080600490816200005591906200054d565b50505060006005905060006040518060800160405280600181526020016040518060400160405280600481526020017f6b696e640000000000000000000000000000000000000000000000000000000081525081526020016040518060400160405280600481526020017f6b616e640000000000000000000000000000000000000000000000000000000081525081526020016040518060600160405280603d815260200162002999603d9139815250905060006040518060800160405280600281526020016040518060400160405280600681526020017f686172646c79000000000000000000000000000000000000000000000000000081525081526020016040518060400160405280600681526020017f68642e6c692f000000000000000000000000000000000000000000000000000081525081526020016040518060400160405280601581526020017f6f6e6c79206a7573743b20616c6d6f7374206e6f7400000000000000000000008152508152509050828290806001815401808255809150506001900390600052602060002090600402016000909190919091506000820151816000015560208201518160010190816200021891906200054d565b5060408201518160020190816200023091906200054d565b5060608201518160030190816200024891906200054d565b505050828190806001815401808255809150506001900390600052602060002090600402016000909190919091506000820151816000015560208201518160010190816200029791906200054d565b506040820151816002019081620002af91906200054d565b506060820151816003019081620002c791906200054d565b50505050505062000634565b600081519050919050565b7f4e487b7100000000000000000000000000000000000000000000000000000000600052604160045260246000fd5b7f4e487b7100000000000000000000000000000000000000000000000000000000600052602260045260246000fd5b600060028204905060018216806200035557607f821691505b6020821081036200036b576200036a6200030d565b5b50919050565b60008190508160005260206000209050919050565b60006020601f8301049050919050565b600082821b905092915050565b600060088302620003d57fffffffffffffffffffffffffffffffffffffffffffffffffffffffffffffffff8262000396565b620003e1868362000396565b95508019841693508086168417925050509392505050565b6000819050919050565b6000819050919050565b60006200042e620004286200042284620003f9565b62000403565b620003f9565b9050919050565b6000819050919050565b6200044a836200040d565b62000462620004598262000435565b848454620003a3565b825550505050565b600090565b620004796200046a565b620004868184846200043f565b505050565b5b81811015620004ae57620004a26000826200046f565b6001810190506200048c565b5050565b601f821115620004fd57620004c78162000371565b620004d28462000386565b81016020851015620004e2578190505b620004fa620004f18562000386565b8301826200048b565b50505b505050565b600082821c905092915050565b6000620005226000198460080262000502565b1980831691505092915050565b60006200053d83836200050f565b9150826002028217905092915050565b6200055882620002d3565b67ffffffffffffffff811115620005745762000573620002de565b5b6200058082546200033c565b6200058d828285620004b2565b600060209050601f831160018114620005c55760008415620005b0578287015190505b620005bc85826200052f565b8655506200062c565b601f198416620005d58662000371565b60005b82811015620005ff57848901518255600182019150602085019450602081019050620005d8565b868310156200061f57848901516200061b601f8916826200050f565b8355505b6001600288020188555050505b505050505050565b61235580620006446000396000f3fe608060405234801561001057600080fd5b50600436106100f55760003560e01c806349d926b91161009757806395d89b411161006657806395d89b41146102b2578063a457c2d7146102d0578063a9059cbb14610300578063dd62ed3e14610330576100f5565b806349d926b914610216578063619e54ea1461023257806370a082311461026457806376f1895814610294576100f5565b806323b872dd116100d357806323b872dd1461016657806325ab711414610196578063313ce567146101c857806339509351146101e6576100f5565b806306fdde03146100fa578063095ea7b31461011857806318160ddd14610148575b600080fd5b610102610360565b60405161010f91906114f3565b60405180910390f35b610132600480360381019061012d91906115bd565b6103f2565b60405161013f9190611618565b60405180910390f35b610150610415565b60405161015d9190611642565b60405180910390f35b610180600480360381019061017b919061165d565b61041f565b60405161018d9190611618565b60405180910390f35b6101b060048036038101906101ab91906116b0565b61044e565b6040516101bf939291906116dd565b60405180910390f35b6101d0610673565b6040516101dd9190611745565b60405180910390f35b61020060048036038101906101fb91906115bd565b61067c565b60405161020d9190611618565b60405180910390f35b610230600480360381019061022b9190611895565b6106b3565b005b61024c600480360381019061024791906116b0565b6107e8565b60405161025b939291906116dd565b60405180910390f35b61027e6004803603810190610279919061193c565b610a0d565b60405161028b9190611642565b60405180910390f35b61029c610a55565b6040516102a99190611af5565b60405180910390f35b6102ba610dab565b6040516102c791906114f3565b60405180910390f35b6102ea60048036038101906102e591906115bd565b610e3d565b6040516102f79190611618565b60405180910390f35b61031a600480360381019061031591906115bd565b610eb4565b6040516103279190611618565b60405180910390f35b61034a60048036038101906103459190611b17565b610ed7565b6040516103579190611642565b60405180910390f35b60606003805461036f90611b86565b80601f016020809104026020016040519081016040528092919081815260200182805461039b90611b86565b80156103e85780601f106103bd576101008083540402835291602001916103e8565b820191906000526020600020905b8154815290600101906020018083116103cb57829003601f168201915b5050505050905090565b6000806103fd610f5e565b905061040a818585610f66565b600191505092915050565b6000600254905090565b60008061042a610f5e565b905061043785828561112f565b6104428585856111bb565b60019150509392505050565b60608060606005848154811061046757610466611bb7565b5b90600052602060002090600402016001016005858154811061048c5761048b611bb7565b5b9060005260206000209060040201600201600586815481106104b1576104b0611bb7565b5b90600052602060002090600402016003018280546104ce90611b86565b80601f01602080910402602001604051908101604052809291908181526020018280546104fa90611b86565b80156105475780601f1061051c57610100808354040283529160200191610547565b820191906000526020600020905b81548152906001019060200180831161052a57829003601f168201915b5050505050925081805461055a90611b86565b80601f016020809104026020016040519081016040528092919081815260200182805461058690611b86565b80156105d35780601f106105a8576101008083540402835291602001916105d3565b820191906000526020600020905b8154815290600101906020018083116105b657829003601f168201915b505050505091508080546105e690611b86565b80601f016020809104026020016040519081016040528092919081815260200182805461061290611b86565b801561065f5780601f106106345761010080835404028352916020019161065f565b820191906000526020600020905b81548152906001019060200180831161064257829003601f168201915b505050505090509250925092509193909250565b60006012905090565b600080610687610f5e565b90506106a88185856106998589610ed7565b6106a39190611c15565b610f66565b600191505092915050565b60006005805490509050600560405180608001604052808381526020018681526020018581526020018481525090806001815401808255809150506001900390600052602060002090600402016000909190919091506000820151816000015560208201518160010190816107289190611df5565b50604082015181600201908161073e9190611df5565b5060608201518160030190816107549190611df5565b50505033600d600083815260200190815260200160002060006101000a81548173ffffffffffffffffffffffffffffffffffffffff021916908373ffffffffffffffffffffffffffffffffffffffff1602179055507f671522cfa2688f05436872ff42ab995ee9330783a1d8023ffafe4d9b366050e833826040516107da929190611ed6565b60405180910390a150505050565b60608060606005848154811061080157610800611bb7565b5b90600052602060002090600402016001016005858154811061082657610825611bb7565b5b90600052602060002090600402016002016005868154811061084b5761084a611bb7565b5b906000526020600020906004020160030182805461086890611b86565b80601f016020809104026020016040519081016040528092919081815260200182805461089490611b86565b80156108e15780601f106108b6576101008083540402835291602001916108e1565b820191906000526020600020905b8154815290600101906020018083116108c457829003601f168201915b505050505092508180546108f490611b86565b80601f016020809104026020016040519081016040528092919081815260200182805461092090611b86565b801561096d5780601f106109425761010080835404028352916020019161096d565b820191906000526020600020905b81548152906001019060200180831161095057829003601f168201915b5050505050915080805461098090611b86565b80601f01602080910402602001604051908101604052809291908181526020018280546109ac90611b86565b80156109f95780601f106109ce576101008083540402835291602001916109f9565b820191906000526020600020905b8154815290600101906020018083116109dc57829003601f168201915b505050505090509250925092509193909250565b60008060008373ffffffffffffffffffffffffffffffffffffffff1673ffffffffffffffffffffffffffffffffffffffff168152602001908152602001600020549050919050565b6060600060058054905067ffffffffffffffff811115610a7857610a7761176a565b5b604051908082528060200260200182016040528015610ab157816020015b610a9e61143b565b815260200190600190039081610a965790505b5090506000805b600580549050811015610cf15760058181548110610ad957610ad8611bb7565b5b906000526020600020906004020160405180608001604052908160008201548152602001600182018054610b0c90611b86565b80601f0160208091040260200160405190810160405280929190818152602001828054610b3890611b86565b8015610b855780601f10610b5a57610100808354040283529160200191610b85565b820191906000526020600020905b815481529060010190602001808311610b6857829003601f168201915b50505050508152602001600282018054610b9e90611b86565b80601f0160208091040260200160405190810160405280929190818152602001828054610bca90611b86565b8015610c175780601f10610bec57610100808354040283529160200191610c17565b820191906000526020600020905b815481529060010190602001808311610bfa57829003601f168201915b50505050508152602001600382018054610c3090611b86565b80601f0160208091040260200160405190810160405280929190818152602001828054610c5c90611b86565b8015610ca95780601f10610c7e57610100808354040283529160200191610ca9565b820191906000526020600020905b815481529060010190602001808311610c8c57829003601f168201915b505050505081525050838381518110610cc557610cc4611bb7565b5b60200260200101819052508180610cdb90611eff565b9250508080610ce990611eff565b915050610ab8565b5060008167ffffffffffffffff811115610d0e57610d0d61176a565b5b604051908082528060200260200182016040528015610d4757816020015b610d3461143b565b815260200190600190039081610d2c5790505b50905060005b82811015610da157838181518110610d6857610d67611bb7565b5b6020026020010151828281518110610d8357610d82611bb7565b5b60200260200101819052508080610d9990611eff565b915050610d4d565b5080935050505090565b606060048054610dba90611b86565b80601f0160208091040260200160405190810160405280929190818152602001828054610de690611b86565b8015610e335780601f10610e0857610100808354040283529160200191610e33565b820191906000526020600020905b815481529060010190602001808311610e1657829003601f168201915b5050505050905090565b600080610e48610f5e565b90506000610e568286610ed7565b905083811015610e9b576040517f08c379a0000000000000000000000000000000000000000000000000000000008152600401610e9290611fb9565b60405180910390fd5b610ea88286868403610f66565b60019250505092915050565b600080610ebf610f5e565b9050610ecc8185856111bb565b600191505092915050565b6000600160008473ffffffffffffffffffffffffffffffffffffffff1673ffffffffffffffffffffffffffffffffffffffff16815260200190815260200160002060008373ffffffffffffffffffffffffffffffffffffffff1673ffffffffffffffffffffffffffffffffffffffff16815260200190815260200160002054905092915050565b600033905090565b600073ffffffffffffffffffffffffffffffffffffffff168373ffffffffffffffffffffffffffffffffffffffff1603610fd5576040517f08c379a0000000000000000000000000000000000000000000000000000000008152600401610fcc9061204b565b60405180910390fd5b600073ffffffffffffffffffffffffffffffffffffffff168273ffffffffffffffffffffffffffffffffffffffff1603611044576040517f08c379a000000000000000000000000000000000000000000000000000000000815260040161103b906120dd565b60405180910390fd5b80600160008573ffffffffffffffffffffffffffffffffffffffff1673ffffffffffffffffffffffffffffffffffffffff16815260200190815260200160002060008473ffffffffffffffffffffffffffffffffffffffff1673ffffffffffffffffffffffffffffffffffffffff168152602001908152602001600020819055508173ffffffffffffffffffffffffffffffffffffffff168373ffffffffffffffffffffffffffffffffffffffff167f8c5be1e5ebec7d5bd14f71427d1e84f3dd0314c0f7b2291e5b200ac8c7c3b925836040516111229190611642565b60405180910390a3505050565b600061113b8484610ed7565b90507fffffffffffffffffffffffffffffffffffffffffffffffffffffffffffffffff81146111b557818110156111a7576040517f08c379a000000000000000000000000000000000000000000000000000000000815260040161119e90612149565b60405180910390fd5b6111b48484848403610f66565b5b50505050565b600073ffffffffffffffffffffffffffffffffffffffff168373ffffffffffffffffffffffffffffffffffffffff160361122a576040517f08c379a0000000000000000000000000000000000000000000000000000000008152600401611221906121db565b60405180910390fd5b600073ffffffffffffffffffffffffffffffffffffffff168273ffffffffffffffffffffffffffffffffffffffff1603611299576040517f08c379a00000000000000000000000000000000000000000000000000000000081526004016112909061226d565b60405180910390fd5b6112a4838383611431565b60008060008573ffffffffffffffffffffffffffffffffffffffff1673ffffffffffffffffffffffffffffffffffffffff1681526020019081526020016000205490508181101561132a576040517f08c379a0000000000000000000000000000000000000000000000000000000008152600401611321906122ff565b60405180910390fd5b8181036000808673ffffffffffffffffffffffffffffffffffffffff1673ffffffffffffffffffffffffffffffffffffffff16815260200190815260200160002081905550816000808573ffffffffffffffffffffffffffffffffffffffff1673ffffffffffffffffffffffffffffffffffffffff168152602001908152602001600020600082825401925050819055508273ffffffffffffffffffffffffffffffffffffffff168473ffffffffffffffffffffffffffffffffffffffff167fddf252ad1be2c89b69c2b068fc378daa952ba7f163c4a11628f55a4df523b3ef846040516114189190611642565b60405180910390a361142b848484611436565b50505050565b505050565b505050565b6040518060800160405280600081526020016060815260200160608152602001606081525090565b600081519050919050565b600082825260208201905092915050565b60005b8381101561149d578082015181840152602081019050611482565b60008484015250505050565b6000601f19601f8301169050919050565b60006114c582611463565b6114cf818561146e565b93506114df81856020860161147f565b6114e8816114a9565b840191505092915050565b6000602082019050818103600083015261150d81846114ba565b905092915050565b6000604051905090565b600080fd5b600080fd5b600073ffffffffffffffffffffffffffffffffffffffff82169050919050565b600061155482611529565b9050919050565b61156481611549565b811461156f57600080fd5b50565b6000813590506115818161155b565b92915050565b6000819050919050565b61159a81611587565b81146115a557600080fd5b50565b6000813590506115b781611591565b92915050565b600080604083850312156115d4576115d361151f565b5b60006115e285828601611572565b92505060206115f3858286016115a8565b9150509250929050565b60008115159050919050565b611612816115fd565b82525050565b600060208201905061162d6000830184611609565b92915050565b61163c81611587565b82525050565b60006020820190506116576000830184611633565b92915050565b6000806000606084860312156116765761167561151f565b5b600061168486828701611572565b935050602061169586828701611572565b92505060406116a6868287016115a8565b9150509250925092565b6000602082840312156116c6576116c561151f565b5b60006116d4848285016115a8565b91505092915050565b600060608201905081810360008301526116f781866114ba565b9050818103602083015261170b81856114ba565b9050818103604083015261171f81846114ba565b9050949350505050565b600060ff82169050919050565b61173f81611729565b82525050565b600060208201905061175a6000830184611736565b92915050565b600080fd5b600080fd5b7f4e487b7100000000000000000000000000000000000000000000000000000000600052604160045260246000fd5b6117a2826114a9565b810181811067ffffffffffffffff821117156117c1576117c061176a565b5b80604052505050565b60006117d4611515565b90506117e08282611799565b919050565b600067ffffffffffffffff821115611800576117ff61176a565b5b611809826114a9565b9050602081019050919050565b82818337600083830152505050565b6000611838611833846117e5565b6117ca565b90508281526020810184848401111561185457611853611765565b5b61185f848285611816565b509392505050565b600082601f83011261187c5761187b611760565b5b813561188c848260208601611825565b91505092915050565b6000806000606084860312156118ae576118ad61151f565b5b600084013567ffffffffffffffff8111156118cc576118cb611524565b5b6118d886828701611867565b935050602084013567ffffffffffffffff8111156118f9576118f8611524565b5b61190586828701611867565b925050604084013567ffffffffffffffff81111561192657611925611524565b5b61193286828701611867565b9150509250925092565b6000602082840312156119525761195161151f565b5b600061196084828501611572565b91505092915050565b600081519050919050565b600082825260208201905092915050565b6000819050602082019050919050565b61199e81611587565b82525050565b600082825260208201905092915050565b60006119c082611463565b6119ca81856119a4565b93506119da81856020860161147f565b6119e3816114a9565b840191505092915050565b6000608083016000830151611a066000860182611995565b5060208301518482036020860152611a1e82826119b5565b91505060408301518482036040860152611a3882826119b5565b91505060608301518482036060860152611a5282826119b5565b9150508091505092915050565b6000611a6b83836119ee565b905092915050565b6000602082019050919050565b6000611a8b82611969565b611a958185611974565b935083602082028501611aa785611985565b8060005b85811015611ae35784840389528151611ac48582611a5f565b9450611acf83611a73565b925060208a01995050600181019050611aab565b50829750879550505050505092915050565b60006020820190508181036000830152611b0f8184611a80565b905092915050565b60008060408385031215611b2e57611b2d61151f565b5b6000611b3c85828601611572565b9250506020611b4d85828601611572565b9150509250929050565b7f4e487b7100000000000000000000000000000000000000000000000000000000600052602260045260246000fd5b60006002820490506001821680611b9e57607f821691505b602082108103611bb157611bb0611b57565b5b50919050565b7f4e487b7100000000000000000000000000000000000000000000000000000000600052603260045260246000fd5b7f4e487b7100000000000000000000000000000000000000000000000000000000600052601160045260246000fd5b6000611c2082611587565b9150611c2b83611587565b9250828201905080821115611c4357611c42611be6565b5b92915050565b60008190508160005260206000209050919050565b60006020601f8301049050919050565b600082821b905092915050565b600060088302611cab7fffffffffffffffffffffffffffffffffffffffffffffffffffffffffffffffff82611c6e565b611cb58683611c6e565b95508019841693508086168417925050509392505050565b6000819050919050565b6000611cf2611ced611ce884611587565b611ccd565b611587565b9050919050565b6000819050919050565b611d0c83611cd7565b611d20611d1882611cf9565b848454611c7b565b825550505050565b600090565b611d35611d28565b611d40818484611d03565b505050565b5b81811015611d6457611d59600082611d2d565b600181019050611d46565b5050565b601f821115611da957611d7a81611c49565b611d8384611c5e565b81016020851015611d92578190505b611da6611d9e85611c5e565b830182611d45565b50505b505050565b600082821c905092915050565b6000611dcc60001984600802611dae565b1980831691505092915050565b6000611de58383611dbb565b9150826002028217905092915050565b611dfe82611463565b67ffffffffffffffff811115611e1757611e1661176a565b5b611e218254611b86565b611e2c828285611d68565b600060209050601f831160018114611e5f5760008415611e4d578287015190505b611e578582611dd9565b865550611ebf565b601f198416611e6d86611c49565b60005b82811015611e9557848901518255600182019150602085019450602081019050611e70565b86831015611eb25784890151611eae601f891682611dbb565b8355505b6001600288020188555050505b505050505050565b611ed081611549565b82525050565b6000604082019050611eeb6000830185611ec7565b611ef86020830184611633565b9392505050565b6000611f0a82611587565b91507fffffffffffffffffffffffffffffffffffffffffffffffffffffffffffffffff8203611f3c57611f3b611be6565b5b600182019050919050565b7f45524332303a2064656372656173656420616c6c6f77616e63652062656c6f7760008201527f207a65726f000000000000000000000000000000000000000000000000000000602082015250565b6000611fa360258361146e565b9150611fae82611f47565b604082019050919050565b60006020820190508181036000830152611fd281611f96565b9050919050565b7f45524332303a20617070726f76652066726f6d20746865207a65726f2061646460008201527f7265737300000000000000000000000000000000000000000000000000000000602082015250565b600061203560248361146e565b915061204082611fd9565b604082019050919050565b6000602082019050818103600083015261206481612028565b9050919050565b7f45524332303a20617070726f766520746f20746865207a65726f20616464726560008201527f7373000000000000000000000000000000000000000000000000000000000000602082015250565b60006120c760228361146e565b91506120d28261206b565b604082019050919050565b600060208201905081810360008301526120f6816120ba565b9050919050565b7f45524332303a20696e73756666696369656e7420616c6c6f77616e6365000000600082015250565b6000612133601d8361146e565b915061213e826120fd565b602082019050919050565b6000602082019050818103600083015261216281612126565b9050919050565b7f45524332303a207472616e736665722066726f6d20746865207a65726f20616460008201527f6472657373000000000000000000000000000000000000000000000000000000602082015250565b60006121c560258361146e565b91506121d082612169565b604082019050919050565b600060208201905081810360008301526121f4816121b8565b9050919050565b7f45524332303a207472616e7366657220746f20746865207a65726f206164647260008201527f6573730000000000000000000000000000000000000000000000000000000000602082015250565b600061225760238361146e565b9150612262826121fb565b604082019050919050565b600060208201905081810360008301526122868161224a565b9050919050565b7f45524332303a207472616e7366657220616d6f756e742065786365656473206260008201527f616c616e63650000000000000000000000000000000000000000000000000000602082015250565b60006122e960268361146e565b91506122f48261228d565b604082019050919050565b60006020820190508181036000830152612318816122dc565b905091905056fea26469706673582212209e85fa1dc6a488fc2ebf1dcf884dad5d90fea2c4bd5e434d7b97354ab98375e264736f6c6343000811003367656e65726f75732c2068656c7066756c2c20616e64207468696e6b696e672061626f7574206f746865722070656f706c652773206665656c696e6773",
  "linkReferences": {},
  "deployedLinkReferences": {}
}