{
  "_format": "hh-sol-artifact-1",
  "contractName": "EWordEngContract",
  "sourceName": "contracts/EWordEngContract.sol",
  "abi": [
    {
      "anonymous": false,
      "inputs": [
        {
          "indexed": false,
          "internalType": "address",
          "name": "recipient",
          "type": "address"
        },
        {
          "indexed": false,
          "internalType": "uint256",
          "name": "wordId",
          "type": "uint256"
        }
      ],
      "name": "AddWord",
      "type": "event"
    },
    {
      "inputs": [
        {
          "internalType": "string",
          "name": "engword",
          "type": "string"
        },
        {
          "internalType": "string",
          "name": "engword_explained",
          "type": "string"
        },
        {
          "internalType": "string",
          "name": "engword_pronounciation",
          "type": "string"
        }
      ],
      "name": "addEWord",
      "outputs": [],
      "stateMutability": "nonpayable",
      "type": "function"
    },
    {
      "inputs": [],
      "name": "getEWords",
      "outputs": [
        {
          "components": [
            {
              "internalType": "uint256",
              "name": "id",
              "type": "uint256"
            },
            {
              "internalType": "string",
              "name": "engword",
              "type": "string"
            },
            {
              "internalType": "string",
              "name": "engword_explained",
              "type": "string"
            },
            {
              "internalType": "string",
              "name": "engword_pronounciation",
              "type": "string"
            }
          ],
          "internalType": "struct EWordEngContract.EWord[]",
          "name": "",
          "type": "tuple[]"
        }
      ],
      "stateMutability": "view",
      "type": "function"
    },
    {
      "inputs": [
        {
          "internalType": "uint256",
          "name": "wordid",
          "type": "uint256"
        }
      ],
      "name": "getEngWordEngExplainedAndPronounciation",
      "outputs": [
        {
          "internalType": "string",
          "name": "",
          "type": "string"
        },
        {
          "internalType": "string",
          "name": "",
          "type": "string"
        },
        {
          "internalType": "string",
          "name": "",
          "type": "string"
        }
      ],
      "stateMutability": "view",
      "type": "function"
    }
  ],
  "bytecode": "0x608060405234801561001057600080fd5b50611098806100206000396000f3fe608060405234801561001057600080fd5b50600436106100415760003560e01c806325ab71141461004657806349d926b91461007857806376f1895814610094575b600080fd5b610060600480360381019061005b91906107d2565b6100b2565b60405161006f9392919061088f565b60405180910390f35b610092600480360381019061008d9190610a10565b6102d7565b005b61009c61040b565b6040516100a99190610c43565b60405180910390f35b6060806060600084815481106100cb576100ca610c65565b5b9060005260206000209060040201600101600085815481106100f0576100ef610c65565b5b90600052602060002090600402016002016000868154811061011557610114610c65565b5b906000526020600020906004020160030182805461013290610cc3565b80601f016020809104026020016040519081016040528092919081815260200182805461015e90610cc3565b80156101ab5780601f10610180576101008083540402835291602001916101ab565b820191906000526020600020905b81548152906001019060200180831161018e57829003601f168201915b505050505092508180546101be90610cc3565b80601f01602080910402602001604051908101604052809291908181526020018280546101ea90610cc3565b80156102375780601f1061020c57610100808354040283529160200191610237565b820191906000526020600020905b81548152906001019060200180831161021a57829003601f168201915b5050505050915080805461024a90610cc3565b80601f016020809104026020016040519081016040528092919081815260200182805461027690610cc3565b80156102c35780601f10610298576101008083540402835291602001916102c3565b820191906000526020600020905b8154815290600101906020018083116102a657829003601f168201915b505050505090509250925092509193909250565b6000808054905090506000604051806080016040528083815260200186815260200185815260200184815250908060018154018082558091505060019003906000526020600020906004020160009091909190915060008201518160000155602082015181600101908161034b9190610ea0565b5060408201518160020190816103619190610ea0565b5060608201518160030190816103779190610ea0565b505050336001600083815260200190815260200160002060006101000a81548173ffffffffffffffffffffffffffffffffffffffff021916908373ffffffffffffffffffffffffffffffffffffffff1602179055507f671522cfa2688f05436872ff42ab995ee9330783a1d8023ffafe4d9b366050e833826040516103fd929190610fc2565b60405180910390a150505050565b60606000808054905067ffffffffffffffff81111561042d5761042c6108e5565b5b60405190808252806020026020018201604052801561046657816020015b610453610760565b81526020019060019003908161044b5790505b5090506000805b6000805490508110156106a6576000818154811061048e5761048d610c65565b5b9060005260206000209060040201604051806080016040529081600082015481526020016001820180546104c190610cc3565b80601f01602080910402602001604051908101604052809291908181526020018280546104ed90610cc3565b801561053a5780601f1061050f5761010080835404028352916020019161053a565b820191906000526020600020905b81548152906001019060200180831161051d57829003601f168201915b5050505050815260200160028201805461055390610cc3565b80601f016020809104026020016040519081016040528092919081815260200182805461057f90610cc3565b80156105cc5780601f106105a1576101008083540402835291602001916105cc565b820191906000526020600020905b8154815290600101906020018083116105af57829003601f168201915b505050505081526020016003820180546105e590610cc3565b80601f016020809104026020016040519081016040528092919081815260200182805461061190610cc3565b801561065e5780601f106106335761010080835404028352916020019161065e565b820191906000526020600020905b81548152906001019060200180831161064157829003601f168201915b50505050508152505083838151811061067a57610679610c65565b5b602002602001018190525081806106909061101a565b925050808061069e9061101a565b91505061046d565b5060008167ffffffffffffffff8111156106c3576106c26108e5565b5b6040519080825280602002602001820160405280156106fc57816020015b6106e9610760565b8152602001906001900390816106e15790505b50905060005b828110156107565783818151811061071d5761071c610c65565b5b602002602001015182828151811061073857610737610c65565b5b6020026020010181905250808061074e9061101a565b915050610702565b5080935050505090565b6040518060800160405280600081526020016060815260200160608152602001606081525090565b6000604051905090565b600080fd5b600080fd5b6000819050919050565b6107af8161079c565b81146107ba57600080fd5b50565b6000813590506107cc816107a6565b92915050565b6000602082840312156107e8576107e7610792565b5b60006107f6848285016107bd565b91505092915050565b600081519050919050565b600082825260208201905092915050565b60005b8381101561083957808201518184015260208101905061081e565b60008484015250505050565b6000601f19601f8301169050919050565b6000610861826107ff565b61086b818561080a565b935061087b81856020860161081b565b61088481610845565b840191505092915050565b600060608201905081810360008301526108a98186610856565b905081810360208301526108bd8185610856565b905081810360408301526108d18184610856565b9050949350505050565b600080fd5b600080fd5b7f4e487b7100000000000000000000000000000000000000000000000000000000600052604160045260246000fd5b61091d82610845565b810181811067ffffffffffffffff8211171561093c5761093b6108e5565b5b80604052505050565b600061094f610788565b905061095b8282610914565b919050565b600067ffffffffffffffff82111561097b5761097a6108e5565b5b61098482610845565b9050602081019050919050565b82818337600083830152505050565b60006109b36109ae84610960565b610945565b9050828152602081018484840111156109cf576109ce6108e0565b5b6109da848285610991565b509392505050565b600082601f8301126109f7576109f66108db565b5b8135610a078482602086016109a0565b91505092915050565b600080600060608486031215610a2957610a28610792565b5b600084013567ffffffffffffffff811115610a4757610a46610797565b5b610a53868287016109e2565b935050602084013567ffffffffffffffff811115610a7457610a73610797565b5b610a80868287016109e2565b925050604084013567ffffffffffffffff811115610aa157610aa0610797565b5b610aad868287016109e2565b9150509250925092565b600081519050919050565b600082825260208201905092915050565b6000819050602082019050919050565b610aec8161079c565b82525050565b600082825260208201905092915050565b6000610b0e826107ff565b610b188185610af2565b9350610b2881856020860161081b565b610b3181610845565b840191505092915050565b6000608083016000830151610b546000860182610ae3565b5060208301518482036020860152610b6c8282610b03565b91505060408301518482036040860152610b868282610b03565b91505060608301518482036060860152610ba08282610b03565b9150508091505092915050565b6000610bb98383610b3c565b905092915050565b6000602082019050919050565b6000610bd982610ab7565b610be38185610ac2565b935083602082028501610bf585610ad3565b8060005b85811015610c315784840389528151610c128582610bad565b9450610c1d83610bc1565b925060208a01995050600181019050610bf9565b50829750879550505050505092915050565b60006020820190508181036000830152610c5d8184610bce565b905092915050565b7f4e487b7100000000000000000000000000000000000000000000000000000000600052603260045260246000fd5b7f4e487b7100000000000000000000000000000000000000000000000000000000600052602260045260246000fd5b60006002820490506001821680610cdb57607f821691505b602082108103610cee57610ced610c94565b5b50919050565b60008190508160005260206000209050919050565b60006020601f8301049050919050565b600082821b905092915050565b600060088302610d567fffffffffffffffffffffffffffffffffffffffffffffffffffffffffffffffff82610d19565b610d608683610d19565b95508019841693508086168417925050509392505050565b6000819050919050565b6000610d9d610d98610d938461079c565b610d78565b61079c565b9050919050565b6000819050919050565b610db783610d82565b610dcb610dc382610da4565b848454610d26565b825550505050565b600090565b610de0610dd3565b610deb818484610dae565b505050565b5b81811015610e0f57610e04600082610dd8565b600181019050610df1565b5050565b601f821115610e5457610e2581610cf4565b610e2e84610d09565b81016020851015610e3d578190505b610e51610e4985610d09565b830182610df0565b50505b505050565b600082821c905092915050565b6000610e7760001984600802610e59565b1980831691505092915050565b6000610e908383610e66565b9150826002028217905092915050565b610ea9826107ff565b67ffffffffffffffff811115610ec257610ec16108e5565b5b610ecc8254610cc3565b610ed7828285610e13565b600060209050601f831160018114610f0a5760008415610ef8578287015190505b610f028582610e84565b865550610f6a565b601f198416610f1886610cf4565b60005b82811015610f4057848901518255600182019150602085019450602081019050610f1b565b86831015610f5d5784890151610f59601f891682610e66565b8355505b6001600288020188555050505b505050505050565b600073ffffffffffffffffffffffffffffffffffffffff82169050919050565b6000610f9d82610f72565b9050919050565b610fad81610f92565b82525050565b610fbc8161079c565b82525050565b6000604082019050610fd76000830185610fa4565b610fe46020830184610fb3565b9392505050565b7f4e487b7100000000000000000000000000000000000000000000000000000000600052601160045260246000fd5b60006110258261079c565b91507fffffffffffffffffffffffffffffffffffffffffffffffffffffffffffffffff820361105757611056610feb565b5b60018201905091905056fea2646970667358221220e95b91fb9a2a6f0becedb63655ccf9e1448342b7f93b8ec16d9b1dfc3e41b47464736f6c63430008110033",
  "linkReferences": {},
  "deployedLinkReferences": {}
}