{
  "_format": "hh-sol-artifact-1",
  "contractName": "EWordEngContract",
  "sourceName": "contracts/EWordEngContract.sol",
  "abi": [
    {
      "anonymous": false,
      "inputs": [
        {
          "indexed": false,
          "internalType": "address",
          "name": "recipient",
          "type": "address"
        },
        {
          "indexed": false,
          "internalType": "uint256",
          "name": "wordId",
          "type": "uint256"
        }
      ],
      "name": "AddWord",
      "type": "event"
    },
    {
      "inputs": [
        {
          "internalType": "string",
          "name": "engword",
          "type": "string"
        },
        {
          "internalType": "string",
          "name": "engword_explained",
          "type": "string"
        },
        {
          "internalType": "string",
          "name": "engword_pronounciation",
          "type": "string"
        }
      ],
      "name": "addEWord",
      "outputs": [],
      "stateMutability": "nonpayable",
      "type": "function"
    },
    {
      "inputs": [
        {
          "internalType": "uint256",
          "name": "wordid",
          "type": "uint256"
        }
      ],
      "name": "getAddedEngWordEngExplainedAndPronounciation",
      "outputs": [
        {
          "internalType": "string",
          "name": "",
          "type": "string"
        },
        {
          "internalType": "string",
          "name": "",
          "type": "string"
        },
        {
          "internalType": "string",
          "name": "",
          "type": "string"
        }
      ],
      "stateMutability": "view",
      "type": "function"
    },
    {
      "inputs": [],
      "name": "getEWords",
      "outputs": [
        {
          "components": [
            {
              "internalType": "uint256",
              "name": "id",
              "type": "uint256"
            },
            {
              "internalType": "string",
              "name": "engword",
              "type": "string"
            },
            {
              "internalType": "string",
              "name": "engword_explained",
              "type": "string"
            },
            {
              "internalType": "string",
              "name": "engword_pronounciation",
              "type": "string"
            }
          ],
          "internalType": "struct EWordEngContract.EWord[]",
          "name": "",
          "type": "tuple[]"
        }
      ],
      "stateMutability": "view",
      "type": "function"
    },
    {
      "inputs": [
        {
          "internalType": "uint256",
          "name": "wordid",
          "type": "uint256"
        }
      ],
      "name": "getEngWordEngExplainedAndPronounciation",
      "outputs": [
        {
          "internalType": "string",
          "name": "",
          "type": "string"
        },
        {
          "internalType": "string",
          "name": "",
          "type": "string"
        },
        {
          "internalType": "string",
          "name": "",
          "type": "string"
        }
      ],
      "stateMutability": "view",
      "type": "function"
    }
  ],
  "bytecode": "0x608060405234801561001057600080fd5b506112fa806100206000396000f3fe608060405234801561001057600080fd5b506004361061004c5760003560e01c806325ab71141461005157806349d926b914610083578063619e54ea1461009f57806376f18958146100d1575b600080fd5b61006b60048036038101906100669190610a34565b6100ef565b60405161007a93929190610af1565b60405180910390f35b61009d60048036038101906100989190610c72565b610314565b005b6100b960048036038101906100b49190610a34565b610448565b6040516100c893929190610af1565b60405180910390f35b6100d961066d565b6040516100e69190610ea5565b60405180910390f35b60608060606000848154811061010857610107610ec7565b5b90600052602060002090600402016001016000858154811061012d5761012c610ec7565b5b90600052602060002090600402016002016000868154811061015257610151610ec7565b5b906000526020600020906004020160030182805461016f90610f25565b80601f016020809104026020016040519081016040528092919081815260200182805461019b90610f25565b80156101e85780601f106101bd576101008083540402835291602001916101e8565b820191906000526020600020905b8154815290600101906020018083116101cb57829003601f168201915b505050505092508180546101fb90610f25565b80601f016020809104026020016040519081016040528092919081815260200182805461022790610f25565b80156102745780601f1061024957610100808354040283529160200191610274565b820191906000526020600020905b81548152906001019060200180831161025757829003601f168201915b5050505050915080805461028790610f25565b80601f01602080910402602001604051908101604052809291908181526020018280546102b390610f25565b80156103005780601f106102d557610100808354040283529160200191610300565b820191906000526020600020905b8154815290600101906020018083116102e357829003601f168201915b505050505090509250925092509193909250565b600080805490509050600060405180608001604052808381526020018681526020018581526020018481525090806001815401808255809150506001900390600052602060002090600402016000909190919091506000820151816000015560208201518160010190816103889190611102565b50604082015181600201908161039e9190611102565b5060608201518160030190816103b49190611102565b505050336001600083815260200190815260200160002060006101000a81548173ffffffffffffffffffffffffffffffffffffffff021916908373ffffffffffffffffffffffffffffffffffffffff1602179055507f671522cfa2688f05436872ff42ab995ee9330783a1d8023ffafe4d9b366050e8338260405161043a929190611224565b60405180910390a150505050565b60608060606000848154811061046157610460610ec7565b5b90600052602060002090600402016001016000858154811061048657610485610ec7565b5b9060005260206000209060040201600201600086815481106104ab576104aa610ec7565b5b90600052602060002090600402016003018280546104c890610f25565b80601f01602080910402602001604051908101604052809291908181526020018280546104f490610f25565b80156105415780601f1061051657610100808354040283529160200191610541565b820191906000526020600020905b81548152906001019060200180831161052457829003601f168201915b5050505050925081805461055490610f25565b80601f016020809104026020016040519081016040528092919081815260200182805461058090610f25565b80156105cd5780601f106105a2576101008083540402835291602001916105cd565b820191906000526020600020905b8154815290600101906020018083116105b057829003601f168201915b505050505091508080546105e090610f25565b80601f016020809104026020016040519081016040528092919081815260200182805461060c90610f25565b80156106595780601f1061062e57610100808354040283529160200191610659565b820191906000526020600020905b81548152906001019060200180831161063c57829003601f168201915b505050505090509250925092509193909250565b60606000808054905067ffffffffffffffff81111561068f5761068e610b47565b5b6040519080825280602002602001820160405280156106c857816020015b6106b56109c2565b8152602001906001900390816106ad5790505b5090506000805b60008054905081101561090857600081815481106106f0576106ef610ec7565b5b90600052602060002090600402016040518060800160405290816000820154815260200160018201805461072390610f25565b80601f016020809104026020016040519081016040528092919081815260200182805461074f90610f25565b801561079c5780601f106107715761010080835404028352916020019161079c565b820191906000526020600020905b81548152906001019060200180831161077f57829003601f168201915b505050505081526020016002820180546107b590610f25565b80601f01602080910402602001604051908101604052809291908181526020018280546107e190610f25565b801561082e5780601f106108035761010080835404028352916020019161082e565b820191906000526020600020905b81548152906001019060200180831161081157829003601f168201915b5050505050815260200160038201805461084790610f25565b80601f016020809104026020016040519081016040528092919081815260200182805461087390610f25565b80156108c05780601f10610895576101008083540402835291602001916108c0565b820191906000526020600020905b8154815290600101906020018083116108a357829003601f168201915b5050505050815250508383815181106108dc576108db610ec7565b5b602002602001018190525081806108f29061127c565b92505080806109009061127c565b9150506106cf565b5060008167ffffffffffffffff81111561092557610924610b47565b5b60405190808252806020026020018201604052801561095e57816020015b61094b6109c2565b8152602001906001900390816109435790505b50905060005b828110156109b85783818151811061097f5761097e610ec7565b5b602002602001015182828151811061099a57610999610ec7565b5b602002602001018190525080806109b09061127c565b915050610964565b5080935050505090565b6040518060800160405280600081526020016060815260200160608152602001606081525090565b6000604051905090565b600080fd5b600080fd5b6000819050919050565b610a11816109fe565b8114610a1c57600080fd5b50565b600081359050610a2e81610a08565b92915050565b600060208284031215610a4a57610a496109f4565b5b6000610a5884828501610a1f565b91505092915050565b600081519050919050565b600082825260208201905092915050565b60005b83811015610a9b578082015181840152602081019050610a80565b60008484015250505050565b6000601f19601f8301169050919050565b6000610ac382610a61565b610acd8185610a6c565b9350610add818560208601610a7d565b610ae681610aa7565b840191505092915050565b60006060820190508181036000830152610b0b8186610ab8565b90508181036020830152610b1f8185610ab8565b90508181036040830152610b338184610ab8565b9050949350505050565b600080fd5b600080fd5b7f4e487b7100000000000000000000000000000000000000000000000000000000600052604160045260246000fd5b610b7f82610aa7565b810181811067ffffffffffffffff82111715610b9e57610b9d610b47565b5b80604052505050565b6000610bb16109ea565b9050610bbd8282610b76565b919050565b600067ffffffffffffffff821115610bdd57610bdc610b47565b5b610be682610aa7565b9050602081019050919050565b82818337600083830152505050565b6000610c15610c1084610bc2565b610ba7565b905082815260208101848484011115610c3157610c30610b42565b5b610c3c848285610bf3565b509392505050565b600082601f830112610c5957610c58610b3d565b5b8135610c69848260208601610c02565b91505092915050565b600080600060608486031215610c8b57610c8a6109f4565b5b600084013567ffffffffffffffff811115610ca957610ca86109f9565b5b610cb586828701610c44565b935050602084013567ffffffffffffffff811115610cd657610cd56109f9565b5b610ce286828701610c44565b925050604084013567ffffffffffffffff811115610d0357610d026109f9565b5b610d0f86828701610c44565b9150509250925092565b600081519050919050565b600082825260208201905092915050565b6000819050602082019050919050565b610d4e816109fe565b82525050565b600082825260208201905092915050565b6000610d7082610a61565b610d7a8185610d54565b9350610d8a818560208601610a7d565b610d9381610aa7565b840191505092915050565b6000608083016000830151610db66000860182610d45565b5060208301518482036020860152610dce8282610d65565b91505060408301518482036040860152610de88282610d65565b91505060608301518482036060860152610e028282610d65565b9150508091505092915050565b6000610e1b8383610d9e565b905092915050565b6000602082019050919050565b6000610e3b82610d19565b610e458185610d24565b935083602082028501610e5785610d35565b8060005b85811015610e935784840389528151610e748582610e0f565b9450610e7f83610e23565b925060208a01995050600181019050610e5b565b50829750879550505050505092915050565b60006020820190508181036000830152610ebf8184610e30565b905092915050565b7f4e487b7100000000000000000000000000000000000000000000000000000000600052603260045260246000fd5b7f4e487b7100000000000000000000000000000000000000000000000000000000600052602260045260246000fd5b60006002820490506001821680610f3d57607f821691505b602082108103610f5057610f4f610ef6565b5b50919050565b60008190508160005260206000209050919050565b60006020601f8301049050919050565b600082821b905092915050565b600060088302610fb87fffffffffffffffffffffffffffffffffffffffffffffffffffffffffffffffff82610f7b565b610fc28683610f7b565b95508019841693508086168417925050509392505050565b6000819050919050565b6000610fff610ffa610ff5846109fe565b610fda565b6109fe565b9050919050565b6000819050919050565b61101983610fe4565b61102d61102582611006565b848454610f88565b825550505050565b600090565b611042611035565b61104d818484611010565b505050565b5b818110156110715761106660008261103a565b600181019050611053565b5050565b601f8211156110b65761108781610f56565b61109084610f6b565b8101602085101561109f578190505b6110b36110ab85610f6b565b830182611052565b50505b505050565b600082821c905092915050565b60006110d9600019846008026110bb565b1980831691505092915050565b60006110f283836110c8565b9150826002028217905092915050565b61110b82610a61565b67ffffffffffffffff81111561112457611123610b47565b5b61112e8254610f25565b611139828285611075565b600060209050601f83116001811461116c576000841561115a578287015190505b61116485826110e6565b8655506111cc565b601f19841661117a86610f56565b60005b828110156111a25784890151825560018201915060208501945060208101905061117d565b868310156111bf57848901516111bb601f8916826110c8565b8355505b6001600288020188555050505b505050505050565b600073ffffffffffffffffffffffffffffffffffffffff82169050919050565b60006111ff826111d4565b9050919050565b61120f816111f4565b82525050565b61121e816109fe565b82525050565b60006040820190506112396000830185611206565b6112466020830184611215565b9392505050565b7f4e487b7100000000000000000000000000000000000000000000000000000000600052601160045260246000fd5b6000611287826109fe565b91507fffffffffffffffffffffffffffffffffffffffffffffffffffffffffffffffff82036112b9576112b861124d565b5b60018201905091905056fea2646970667358221220651931b57bc4419110c7524be648433613cd7ff0110fe9c50287777e185ef4b164736f6c63430008110033",
  "linkReferences": {},
  "deployedLinkReferences": {}
}