{
  "_format": "hh-sol-artifact-1",
  "contractName": "EWordEngContract",
  "sourceName": "contracts/EWordEngContract.sol",
  "abi": [
    {
      "inputs": [],
      "stateMutability": "nonpayable",
      "type": "constructor"
    },
    {
      "anonymous": false,
      "inputs": [
        {
          "indexed": false,
          "internalType": "address",
          "name": "recipient",
          "type": "address"
        },
        {
          "indexed": false,
          "internalType": "uint256",
          "name": "wordId",
          "type": "uint256"
        }
      ],
      "name": "AddWord",
      "type": "event"
    },
    {
      "anonymous": false,
      "inputs": [
        {
          "indexed": true,
          "internalType": "address",
          "name": "owner",
          "type": "address"
        },
        {
          "indexed": true,
          "internalType": "address",
          "name": "spender",
          "type": "address"
        },
        {
          "indexed": false,
          "internalType": "uint256",
          "name": "value",
          "type": "uint256"
        }
      ],
      "name": "Approval",
      "type": "event"
    },
    {
      "anonymous": false,
      "inputs": [
        {
          "indexed": true,
          "internalType": "address",
          "name": "from",
          "type": "address"
        },
        {
          "indexed": true,
          "internalType": "address",
          "name": "to",
          "type": "address"
        },
        {
          "indexed": false,
          "internalType": "uint256",
          "name": "value",
          "type": "uint256"
        }
      ],
      "name": "Transfer",
      "type": "event"
    },
    {
      "inputs": [
        {
          "internalType": "string",
          "name": "engword",
          "type": "string"
        },
        {
          "internalType": "string",
          "name": "engword_explained",
          "type": "string"
        },
        {
          "internalType": "string",
          "name": "engword_pronounciation",
          "type": "string"
        }
      ],
      "name": "addEWord",
      "outputs": [],
      "stateMutability": "nonpayable",
      "type": "function"
    },
    {
      "inputs": [
        {
          "internalType": "address",
          "name": "owner",
          "type": "address"
        },
        {
          "internalType": "address",
          "name": "spender",
          "type": "address"
        }
      ],
      "name": "allowance",
      "outputs": [
        {
          "internalType": "uint256",
          "name": "",
          "type": "uint256"
        }
      ],
      "stateMutability": "view",
      "type": "function"
    },
    {
      "inputs": [
        {
          "internalType": "address",
          "name": "spender",
          "type": "address"
        },
        {
          "internalType": "uint256",
          "name": "amount",
          "type": "uint256"
        }
      ],
      "name": "approve",
      "outputs": [
        {
          "internalType": "bool",
          "name": "",
          "type": "bool"
        }
      ],
      "stateMutability": "nonpayable",
      "type": "function"
    },
    {
      "inputs": [
        {
          "internalType": "address",
          "name": "account",
          "type": "address"
        }
      ],
      "name": "balanceOf",
      "outputs": [
        {
          "internalType": "uint256",
          "name": "",
          "type": "uint256"
        }
      ],
      "stateMutability": "view",
      "type": "function"
    },
    {
      "inputs": [],
      "name": "decimals",
      "outputs": [
        {
          "internalType": "uint8",
          "name": "",
          "type": "uint8"
        }
      ],
      "stateMutability": "view",
      "type": "function"
    },
    {
      "inputs": [
        {
          "internalType": "address",
          "name": "spender",
          "type": "address"
        },
        {
          "internalType": "uint256",
          "name": "subtractedValue",
          "type": "uint256"
        }
      ],
      "name": "decreaseAllowance",
      "outputs": [
        {
          "internalType": "bool",
          "name": "",
          "type": "bool"
        }
      ],
      "stateMutability": "nonpayable",
      "type": "function"
    },
    {
      "inputs": [
        {
          "internalType": "uint256",
          "name": "wordid",
          "type": "uint256"
        }
      ],
      "name": "getAddedEngWordEngExplainedAndPronounciation",
      "outputs": [
        {
          "internalType": "string",
          "name": "",
          "type": "string"
        },
        {
          "internalType": "string",
          "name": "",
          "type": "string"
        },
        {
          "internalType": "string",
          "name": "",
          "type": "string"
        }
      ],
      "stateMutability": "view",
      "type": "function"
    },
    {
      "inputs": [],
      "name": "getEWords",
      "outputs": [
        {
          "components": [
            {
              "internalType": "uint256",
              "name": "id",
              "type": "uint256"
            },
            {
              "internalType": "string",
              "name": "engword",
              "type": "string"
            },
            {
              "internalType": "string",
              "name": "engword_explained",
              "type": "string"
            },
            {
              "internalType": "string",
              "name": "engword_pronounciation",
              "type": "string"
            }
          ],
          "internalType": "struct EWordEngContract.EWord[]",
          "name": "",
          "type": "tuple[]"
        }
      ],
      "stateMutability": "view",
      "type": "function"
    },
    {
      "inputs": [
        {
          "internalType": "uint256",
          "name": "wordid",
          "type": "uint256"
        }
      ],
      "name": "getEngWordEngExplainedAndPronounciation",
      "outputs": [
        {
          "internalType": "string",
          "name": "",
          "type": "string"
        },
        {
          "internalType": "string",
          "name": "",
          "type": "string"
        },
        {
          "internalType": "string",
          "name": "",
          "type": "string"
        }
      ],
      "stateMutability": "view",
      "type": "function"
    },
    {
      "inputs": [
        {
          "internalType": "uint256",
          "name": "wordid",
          "type": "uint256"
        }
      ],
      "name": "getListOfFiveWords",
      "outputs": [
        {
          "components": [
            {
              "internalType": "uint256",
              "name": "id",
              "type": "uint256"
            },
            {
              "internalType": "string",
              "name": "engword",
              "type": "string"
            },
            {
              "internalType": "string",
              "name": "engword_explained",
              "type": "string"
            },
            {
              "internalType": "string",
              "name": "engword_pronounciation",
              "type": "string"
            }
          ],
          "internalType": "struct EWordEngContract.EWord[]",
          "name": "",
          "type": "tuple[]"
        }
      ],
      "stateMutability": "view",
      "type": "function"
    },
    {
      "inputs": [
        {
          "internalType": "address",
          "name": "spender",
          "type": "address"
        },
        {
          "internalType": "uint256",
          "name": "addedValue",
          "type": "uint256"
        }
      ],
      "name": "increaseAllowance",
      "outputs": [
        {
          "internalType": "bool",
          "name": "",
          "type": "bool"
        }
      ],
      "stateMutability": "nonpayable",
      "type": "function"
    },
    {
      "inputs": [],
      "name": "name",
      "outputs": [
        {
          "internalType": "string",
          "name": "",
          "type": "string"
        }
      ],
      "stateMutability": "view",
      "type": "function"
    },
    {
      "inputs": [],
      "name": "symbol",
      "outputs": [
        {
          "internalType": "string",
          "name": "",
          "type": "string"
        }
      ],
      "stateMutability": "view",
      "type": "function"
    },
    {
      "inputs": [],
      "name": "totalSupply",
      "outputs": [
        {
          "internalType": "uint256",
          "name": "",
          "type": "uint256"
        }
      ],
      "stateMutability": "view",
      "type": "function"
    },
    {
      "inputs": [
        {
          "internalType": "address",
          "name": "to",
          "type": "address"
        },
        {
          "internalType": "uint256",
          "name": "amount",
          "type": "uint256"
        }
      ],
      "name": "transfer",
      "outputs": [
        {
          "internalType": "bool",
          "name": "",
          "type": "bool"
        }
      ],
      "stateMutability": "nonpayable",
      "type": "function"
    },
    {
      "inputs": [
        {
          "internalType": "address",
          "name": "from",
          "type": "address"
        },
        {
          "internalType": "address",
          "name": "to",
          "type": "address"
        },
        {
          "internalType": "uint256",
          "name": "amount",
          "type": "uint256"
        }
      ],
      "name": "transferFrom",
      "outputs": [
        {
          "internalType": "bool",
          "name": "",
          "type": "bool"
        }
      ],
      "stateMutability": "nonpayable",
      "type": "function"
    }
  ],
  "bytecode": "0x60806040523480156200001157600080fd5b50604051806020016040528060008152506040518060200160405280600081525081600390816200004391906200054d565b5080600490816200005591906200054d565b50505060006005905060006040518060800160405280600181526020016040518060400160405280600481526020017f6b696e640000000000000000000000000000000000000000000000000000000081525081526020016040518060400160405280600481526020017f6b616e640000000000000000000000000000000000000000000000000000000081525081526020016040518060600160405280603d815260200162002d3c603d9139815250905060006040518060800160405280600281526020016040518060400160405280600681526020017f686172646c79000000000000000000000000000000000000000000000000000081525081526020016040518060400160405280600681526020017f68642e6c692f000000000000000000000000000000000000000000000000000081525081526020016040518060400160405280601581526020017f6f6e6c79206a7573743b20616c6d6f7374206e6f7400000000000000000000008152508152509050828290806001815401808255809150506001900390600052602060002090600402016000909190919091506000820151816000015560208201518160010190816200021891906200054d565b5060408201518160020190816200023091906200054d565b5060608201518160030190816200024891906200054d565b505050828190806001815401808255809150506001900390600052602060002090600402016000909190919091506000820151816000015560208201518160010190816200029791906200054d565b506040820151816002019081620002af91906200054d565b506060820151816003019081620002c791906200054d565b50505050505062000634565b600081519050919050565b7f4e487b7100000000000000000000000000000000000000000000000000000000600052604160045260246000fd5b7f4e487b7100000000000000000000000000000000000000000000000000000000600052602260045260246000fd5b600060028204905060018216806200035557607f821691505b6020821081036200036b576200036a6200030d565b5b50919050565b60008190508160005260206000209050919050565b60006020601f8301049050919050565b600082821b905092915050565b600060088302620003d57fffffffffffffffffffffffffffffffffffffffffffffffffffffffffffffffff8262000396565b620003e1868362000396565b95508019841693508086168417925050509392505050565b6000819050919050565b6000819050919050565b60006200042e620004286200042284620003f9565b62000403565b620003f9565b9050919050565b6000819050919050565b6200044a836200040d565b62000462620004598262000435565b848454620003a3565b825550505050565b600090565b620004796200046a565b620004868184846200043f565b505050565b5b81811015620004ae57620004a26000826200046f565b6001810190506200048c565b5050565b601f821115620004fd57620004c78162000371565b620004d28462000386565b81016020851015620004e2578190505b620004fa620004f18562000386565b8301826200048b565b50505b505050565b600082821c905092915050565b6000620005226000198460080262000502565b1980831691505092915050565b60006200053d83836200050f565b9150826002028217905092915050565b6200055882620002d3565b67ffffffffffffffff811115620005745762000573620002de565b5b6200058082546200033c565b6200058d828285620004b2565b600060209050601f831160018114620005c55760008415620005b0578287015190505b620005bc85826200052f565b8655506200062c565b601f198416620005d58662000371565b60005b82811015620005ff57848901518255600182019150602085019450602081019050620005d8565b868310156200061f57848901516200061b601f8916826200050f565b8355505b6001600288020188555050505b505050505050565b6126f880620006446000396000f3fe608060405234801561001057600080fd5b50600436106101005760003560e01c8063619e54ea11610097578063a457c2d711610066578063a457c2d7146102db578063a9059cbb1461030b578063d84de2bb1461033b578063dd62ed3e1461036b57610100565b8063619e54ea1461023d57806370a082311461026f57806376f189581461029f57806395d89b41146102bd57610100565b806325ab7114116100d357806325ab7114146101a1578063313ce567146101d357806339509351146101f157806349d926b91461022157610100565b806306fdde0314610105578063095ea7b31461012357806318160ddd1461015357806323b872dd14610171575b600080fd5b61010d61039b565b60405161011a9190611896565b60405180910390f35b61013d60048036038101906101389190611960565b61042d565b60405161014a91906119bb565b60405180910390f35b61015b610450565b60405161016891906119e5565b60405180910390f35b61018b60048036038101906101869190611a00565b61045a565b60405161019891906119bb565b60405180910390f35b6101bb60048036038101906101b69190611a53565b610489565b6040516101ca93929190611a80565b60405180910390f35b6101db6106ae565b6040516101e89190611ae8565b60405180910390f35b61020b60048036038101906102069190611960565b6106b7565b60405161021891906119bb565b60405180910390f35b61023b60048036038101906102369190611c38565b6106ee565b005b61025760048036038101906102529190611a53565b610823565b60405161026693929190611a80565b60405180910390f35b61028960048036038101906102849190611cdf565b610a48565b60405161029691906119e5565b60405180910390f35b6102a7610a90565b6040516102b49190611e98565b60405180910390f35b6102c5610de6565b6040516102d29190611896565b60405180910390f35b6102f560048036038101906102f09190611960565b610e78565b60405161030291906119bb565b60405180910390f35b61032560048036038101906103209190611960565b610eef565b60405161033291906119bb565b60405180910390f35b61035560048036038101906103509190611a53565b610f12565b6040516103629190611e98565b60405180910390f35b61038560048036038101906103809190611eba565b61127a565b60405161039291906119e5565b60405180910390f35b6060600380546103aa90611f29565b80601f01602080910402602001604051908101604052809291908181526020018280546103d690611f29565b80156104235780601f106103f857610100808354040283529160200191610423565b820191906000526020600020905b81548152906001019060200180831161040657829003601f168201915b5050505050905090565b600080610438611301565b9050610445818585611309565b600191505092915050565b6000600254905090565b600080610465611301565b90506104728582856114d2565b61047d85858561155e565b60019150509392505050565b6060806060600584815481106104a2576104a1611f5a565b5b9060005260206000209060040201600101600585815481106104c7576104c6611f5a565b5b9060005260206000209060040201600201600586815481106104ec576104eb611f5a565b5b906000526020600020906004020160030182805461050990611f29565b80601f016020809104026020016040519081016040528092919081815260200182805461053590611f29565b80156105825780601f1061055757610100808354040283529160200191610582565b820191906000526020600020905b81548152906001019060200180831161056557829003601f168201915b5050505050925081805461059590611f29565b80601f01602080910402602001604051908101604052809291908181526020018280546105c190611f29565b801561060e5780601f106105e35761010080835404028352916020019161060e565b820191906000526020600020905b8154815290600101906020018083116105f157829003601f168201915b5050505050915080805461062190611f29565b80601f016020809104026020016040519081016040528092919081815260200182805461064d90611f29565b801561069a5780601f1061066f5761010080835404028352916020019161069a565b820191906000526020600020905b81548152906001019060200180831161067d57829003601f168201915b505050505090509250925092509193909250565b60006012905090565b6000806106c2611301565b90506106e38185856106d4858961127a565b6106de9190611fb8565b611309565b600191505092915050565b60006005805490509050600560405180608001604052808381526020018681526020018581526020018481525090806001815401808255809150506001900390600052602060002090600402016000909190919091506000820151816000015560208201518160010190816107639190612198565b5060408201518160020190816107799190612198565b50606082015181600301908161078f9190612198565b50505033600d600083815260200190815260200160002060006101000a81548173ffffffffffffffffffffffffffffffffffffffff021916908373ffffffffffffffffffffffffffffffffffffffff1602179055507f671522cfa2688f05436872ff42ab995ee9330783a1d8023ffafe4d9b366050e83382604051610815929190612279565b60405180910390a150505050565b60608060606005848154811061083c5761083b611f5a565b5b90600052602060002090600402016001016005858154811061086157610860611f5a565b5b90600052602060002090600402016002016005868154811061088657610885611f5a565b5b90600052602060002090600402016003018280546108a390611f29565b80601f01602080910402602001604051908101604052809291908181526020018280546108cf90611f29565b801561091c5780601f106108f15761010080835404028352916020019161091c565b820191906000526020600020905b8154815290600101906020018083116108ff57829003601f168201915b5050505050925081805461092f90611f29565b80601f016020809104026020016040519081016040528092919081815260200182805461095b90611f29565b80156109a85780601f1061097d576101008083540402835291602001916109a8565b820191906000526020600020905b81548152906001019060200180831161098b57829003601f168201915b505050505091508080546109bb90611f29565b80601f01602080910402602001604051908101604052809291908181526020018280546109e790611f29565b8015610a345780601f10610a0957610100808354040283529160200191610a34565b820191906000526020600020905b815481529060010190602001808311610a1757829003601f168201915b505050505090509250925092509193909250565b60008060008373ffffffffffffffffffffffffffffffffffffffff1673ffffffffffffffffffffffffffffffffffffffff168152602001908152602001600020549050919050565b6060600060058054905067ffffffffffffffff811115610ab357610ab2611b0d565b5b604051908082528060200260200182016040528015610aec57816020015b610ad96117de565b815260200190600190039081610ad15790505b5090506000805b600580549050811015610d2c5760058181548110610b1457610b13611f5a565b5b906000526020600020906004020160405180608001604052908160008201548152602001600182018054610b4790611f29565b80601f0160208091040260200160405190810160405280929190818152602001828054610b7390611f29565b8015610bc05780601f10610b9557610100808354040283529160200191610bc0565b820191906000526020600020905b815481529060010190602001808311610ba357829003601f168201915b50505050508152602001600282018054610bd990611f29565b80601f0160208091040260200160405190810160405280929190818152602001828054610c0590611f29565b8015610c525780601f10610c2757610100808354040283529160200191610c52565b820191906000526020600020905b815481529060010190602001808311610c3557829003601f168201915b50505050508152602001600382018054610c6b90611f29565b80601f0160208091040260200160405190810160405280929190818152602001828054610c9790611f29565b8015610ce45780601f10610cb957610100808354040283529160200191610ce4565b820191906000526020600020905b815481529060010190602001808311610cc757829003601f168201915b505050505081525050838381518110610d0057610cff611f5a565b5b60200260200101819052508180610d16906122a2565b9250508080610d24906122a2565b915050610af3565b5060008167ffffffffffffffff811115610d4957610d48611b0d565b5b604051908082528060200260200182016040528015610d8257816020015b610d6f6117de565b815260200190600190039081610d675790505b50905060005b82811015610ddc57838181518110610da357610da2611f5a565b5b6020026020010151828281518110610dbe57610dbd611f5a565b5b60200260200101819052508080610dd4906122a2565b915050610d88565b5080935050505090565b606060048054610df590611f29565b80601f0160208091040260200160405190810160405280929190818152602001828054610e2190611f29565b8015610e6e5780601f10610e4357610100808354040283529160200191610e6e565b820191906000526020600020905b815481529060010190602001808311610e5157829003601f168201915b5050505050905090565b600080610e83611301565b90506000610e91828661127a565b905083811015610ed6576040517f08c379a0000000000000000000000000000000000000000000000000000000008152600401610ecd9061235c565b60405180910390fd5b610ee38286868403611309565b60019250505092915050565b600080610efa611301565b9050610f0781858561155e565b600191505092915050565b6060600060058054905067ffffffffffffffff811115610f3557610f34611b0d565b5b604051908082528060200260200182016040528015610f6e57816020015b610f5b6117de565b815260200190600190039081610f535790505b5090506000808481610f809190611fb8565b905060008590505b60058110156111bd5760058181548110610fa557610fa4611f5a565b5b906000526020600020906004020160405180608001604052908160008201548152602001600182018054610fd890611f29565b80601f016020809104026020016040519081016040528092919081815260200182805461100490611f29565b80156110515780601f1061102657610100808354040283529160200191611051565b820191906000526020600020905b81548152906001019060200180831161103457829003601f168201915b5050505050815260200160028201805461106a90611f29565b80601f016020809104026020016040519081016040528092919081815260200182805461109690611f29565b80156110e35780601f106110b8576101008083540402835291602001916110e3565b820191906000526020600020905b8154815290600101906020018083116110c657829003601f168201915b505050505081526020016003820180546110fc90611f29565b80601f016020809104026020016040519081016040528092919081815260200182805461112890611f29565b80156111755780601f1061114a57610100808354040283529160200191611175565b820191906000526020600020905b81548152906001019060200180831161115857829003601f168201915b50505050508152505084848151811061119157611190611f5a565b5b602002602001018190525082806111a7906122a2565b93505080806111b5906122a2565b915050610f88565b5060008267ffffffffffffffff8111156111da576111d9611b0d565b5b60405190808252806020026020018201604052801561121357816020015b6112006117de565b8152602001906001900390816111f85790505b50905060005b8381101561126d5784818151811061123457611233611f5a565b5b602002602001015182828151811061124f5761124e611f5a565b5b60200260200101819052508080611265906122a2565b915050611219565b5080945050505050919050565b6000600160008473ffffffffffffffffffffffffffffffffffffffff1673ffffffffffffffffffffffffffffffffffffffff16815260200190815260200160002060008373ffffffffffffffffffffffffffffffffffffffff1673ffffffffffffffffffffffffffffffffffffffff16815260200190815260200160002054905092915050565b600033905090565b600073ffffffffffffffffffffffffffffffffffffffff168373ffffffffffffffffffffffffffffffffffffffff1603611378576040517f08c379a000000000000000000000000000000000000000000000000000000000815260040161136f906123ee565b60405180910390fd5b600073ffffffffffffffffffffffffffffffffffffffff168273ffffffffffffffffffffffffffffffffffffffff16036113e7576040517f08c379a00000000000000000000000000000000000000000000000000000000081526004016113de90612480565b60405180910390fd5b80600160008573ffffffffffffffffffffffffffffffffffffffff1673ffffffffffffffffffffffffffffffffffffffff16815260200190815260200160002060008473ffffffffffffffffffffffffffffffffffffffff1673ffffffffffffffffffffffffffffffffffffffff168152602001908152602001600020819055508173ffffffffffffffffffffffffffffffffffffffff168373ffffffffffffffffffffffffffffffffffffffff167f8c5be1e5ebec7d5bd14f71427d1e84f3dd0314c0f7b2291e5b200ac8c7c3b925836040516114c591906119e5565b60405180910390a3505050565b60006114de848461127a565b90507fffffffffffffffffffffffffffffffffffffffffffffffffffffffffffffffff8114611558578181101561154a576040517f08c379a0000000000000000000000000000000000000000000000000000000008152600401611541906124ec565b60405180910390fd5b6115578484848403611309565b5b50505050565b600073ffffffffffffffffffffffffffffffffffffffff168373ffffffffffffffffffffffffffffffffffffffff16036115cd576040517f08c379a00000000000000000000000000000000000000000000000000000000081526004016115c49061257e565b60405180910390fd5b600073ffffffffffffffffffffffffffffffffffffffff168273ffffffffffffffffffffffffffffffffffffffff160361163c576040517f08c379a000000000000000000000000000000000000000000000000000000000815260040161163390612610565b60405180910390fd5b6116478383836117d4565b60008060008573ffffffffffffffffffffffffffffffffffffffff1673ffffffffffffffffffffffffffffffffffffffff168152602001908152602001600020549050818110156116cd576040517f08c379a00000000000000000000000000000000000000000000000000000000081526004016116c4906126a2565b60405180910390fd5b8181036000808673ffffffffffffffffffffffffffffffffffffffff1673ffffffffffffffffffffffffffffffffffffffff16815260200190815260200160002081905550816000808573ffffffffffffffffffffffffffffffffffffffff1673ffffffffffffffffffffffffffffffffffffffff168152602001908152602001600020600082825401925050819055508273ffffffffffffffffffffffffffffffffffffffff168473ffffffffffffffffffffffffffffffffffffffff167fddf252ad1be2c89b69c2b068fc378daa952ba7f163c4a11628f55a4df523b3ef846040516117bb91906119e5565b60405180910390a36117ce8484846117d9565b50505050565b505050565b505050565b6040518060800160405280600081526020016060815260200160608152602001606081525090565b600081519050919050565b600082825260208201905092915050565b60005b83811015611840578082015181840152602081019050611825565b60008484015250505050565b6000601f19601f8301169050919050565b600061186882611806565b6118728185611811565b9350611882818560208601611822565b61188b8161184c565b840191505092915050565b600060208201905081810360008301526118b0818461185d565b905092915050565b6000604051905090565b600080fd5b600080fd5b600073ffffffffffffffffffffffffffffffffffffffff82169050919050565b60006118f7826118cc565b9050919050565b611907816118ec565b811461191257600080fd5b50565b600081359050611924816118fe565b92915050565b6000819050919050565b61193d8161192a565b811461194857600080fd5b50565b60008135905061195a81611934565b92915050565b60008060408385031215611977576119766118c2565b5b600061198585828601611915565b92505060206119968582860161194b565b9150509250929050565b60008115159050919050565b6119b5816119a0565b82525050565b60006020820190506119d060008301846119ac565b92915050565b6119df8161192a565b82525050565b60006020820190506119fa60008301846119d6565b92915050565b600080600060608486031215611a1957611a186118c2565b5b6000611a2786828701611915565b9350506020611a3886828701611915565b9250506040611a498682870161194b565b9150509250925092565b600060208284031215611a6957611a686118c2565b5b6000611a778482850161194b565b91505092915050565b60006060820190508181036000830152611a9a818661185d565b90508181036020830152611aae818561185d565b90508181036040830152611ac2818461185d565b9050949350505050565b600060ff82169050919050565b611ae281611acc565b82525050565b6000602082019050611afd6000830184611ad9565b92915050565b600080fd5b600080fd5b7f4e487b7100000000000000000000000000000000000000000000000000000000600052604160045260246000fd5b611b458261184c565b810181811067ffffffffffffffff82111715611b6457611b63611b0d565b5b80604052505050565b6000611b776118b8565b9050611b838282611b3c565b919050565b600067ffffffffffffffff821115611ba357611ba2611b0d565b5b611bac8261184c565b9050602081019050919050565b82818337600083830152505050565b6000611bdb611bd684611b88565b611b6d565b905082815260208101848484011115611bf757611bf6611b08565b5b611c02848285611bb9565b509392505050565b600082601f830112611c1f57611c1e611b03565b5b8135611c2f848260208601611bc8565b91505092915050565b600080600060608486031215611c5157611c506118c2565b5b600084013567ffffffffffffffff811115611c6f57611c6e6118c7565b5b611c7b86828701611c0a565b935050602084013567ffffffffffffffff811115611c9c57611c9b6118c7565b5b611ca886828701611c0a565b925050604084013567ffffffffffffffff811115611cc957611cc86118c7565b5b611cd586828701611c0a565b9150509250925092565b600060208284031215611cf557611cf46118c2565b5b6000611d0384828501611915565b91505092915050565b600081519050919050565b600082825260208201905092915050565b6000819050602082019050919050565b611d418161192a565b82525050565b600082825260208201905092915050565b6000611d6382611806565b611d6d8185611d47565b9350611d7d818560208601611822565b611d868161184c565b840191505092915050565b6000608083016000830151611da96000860182611d38565b5060208301518482036020860152611dc18282611d58565b91505060408301518482036040860152611ddb8282611d58565b91505060608301518482036060860152611df58282611d58565b9150508091505092915050565b6000611e0e8383611d91565b905092915050565b6000602082019050919050565b6000611e2e82611d0c565b611e388185611d17565b935083602082028501611e4a85611d28565b8060005b85811015611e865784840389528151611e678582611e02565b9450611e7283611e16565b925060208a01995050600181019050611e4e565b50829750879550505050505092915050565b60006020820190508181036000830152611eb28184611e23565b905092915050565b60008060408385031215611ed157611ed06118c2565b5b6000611edf85828601611915565b9250506020611ef085828601611915565b9150509250929050565b7f4e487b7100000000000000000000000000000000000000000000000000000000600052602260045260246000fd5b60006002820490506001821680611f4157607f821691505b602082108103611f5457611f53611efa565b5b50919050565b7f4e487b7100000000000000000000000000000000000000000000000000000000600052603260045260246000fd5b7f4e487b7100000000000000000000000000000000000000000000000000000000600052601160045260246000fd5b6000611fc38261192a565b9150611fce8361192a565b9250828201905080821115611fe657611fe5611f89565b5b92915050565b60008190508160005260206000209050919050565b60006020601f8301049050919050565b600082821b905092915050565b60006008830261204e7fffffffffffffffffffffffffffffffffffffffffffffffffffffffffffffffff82612011565b6120588683612011565b95508019841693508086168417925050509392505050565b6000819050919050565b600061209561209061208b8461192a565b612070565b61192a565b9050919050565b6000819050919050565b6120af8361207a565b6120c36120bb8261209c565b84845461201e565b825550505050565b600090565b6120d86120cb565b6120e38184846120a6565b505050565b5b81811015612107576120fc6000826120d0565b6001810190506120e9565b5050565b601f82111561214c5761211d81611fec565b61212684612001565b81016020851015612135578190505b61214961214185612001565b8301826120e8565b50505b505050565b600082821c905092915050565b600061216f60001984600802612151565b1980831691505092915050565b6000612188838361215e565b9150826002028217905092915050565b6121a182611806565b67ffffffffffffffff8111156121ba576121b9611b0d565b5b6121c48254611f29565b6121cf82828561210b565b600060209050601f83116001811461220257600084156121f0578287015190505b6121fa858261217c565b865550612262565b601f19841661221086611fec565b60005b8281101561223857848901518255600182019150602085019450602081019050612213565b868310156122555784890151612251601f89168261215e565b8355505b6001600288020188555050505b505050505050565b612273816118ec565b82525050565b600060408201905061228e600083018561226a565b61229b60208301846119d6565b9392505050565b60006122ad8261192a565b91507fffffffffffffffffffffffffffffffffffffffffffffffffffffffffffffffff82036122df576122de611f89565b5b600182019050919050565b7f45524332303a2064656372656173656420616c6c6f77616e63652062656c6f7760008201527f207a65726f000000000000000000000000000000000000000000000000000000602082015250565b6000612346602583611811565b9150612351826122ea565b604082019050919050565b6000602082019050818103600083015261237581612339565b9050919050565b7f45524332303a20617070726f76652066726f6d20746865207a65726f2061646460008201527f7265737300000000000000000000000000000000000000000000000000000000602082015250565b60006123d8602483611811565b91506123e38261237c565b604082019050919050565b60006020820190508181036000830152612407816123cb565b9050919050565b7f45524332303a20617070726f766520746f20746865207a65726f20616464726560008201527f7373000000000000000000000000000000000000000000000000000000000000602082015250565b600061246a602283611811565b91506124758261240e565b604082019050919050565b600060208201905081810360008301526124998161245d565b9050919050565b7f45524332303a20696e73756666696369656e7420616c6c6f77616e6365000000600082015250565b60006124d6601d83611811565b91506124e1826124a0565b602082019050919050565b60006020820190508181036000830152612505816124c9565b9050919050565b7f45524332303a207472616e736665722066726f6d20746865207a65726f20616460008201527f6472657373000000000000000000000000000000000000000000000000000000602082015250565b6000612568602583611811565b91506125738261250c565b604082019050919050565b600060208201905081810360008301526125978161255b565b9050919050565b7f45524332303a207472616e7366657220746f20746865207a65726f206164647260008201527f6573730000000000000000000000000000000000000000000000000000000000602082015250565b60006125fa602383611811565b91506126058261259e565b604082019050919050565b60006020820190508181036000830152612629816125ed565b9050919050565b7f45524332303a207472616e7366657220616d6f756e742065786365656473206260008201527f616c616e63650000000000000000000000000000000000000000000000000000602082015250565b600061268c602683611811565b915061269782612630565b604082019050919050565b600060208201905081810360008301526126bb8161267f565b905091905056fea2646970667358221220eea47153d32f1261517cd7ab2c7188ba07fe3a542e1b143d43d9a1677881156564736f6c6343000811003367656e65726f75732c2068656c7066756c2c20616e64207468696e6b696e672061626f7574206f746865722070656f706c652773206665656c696e6773",
  "linkReferences": {},
  "deployedLinkReferences": {}
}